{"web3/contracts/Voting.sol":{"Voting":{"abi":[{"inputs":[{"internalType":"uint256","name":"proposalId","type":"uint256"}],"name":"approveProposal","outputs":[],"stateMutability":"nonpayable","type":"function"},{"inputs":[{"internalType":"string","name":"description","type":"string"}],"name":"createProposal","outputs":[],"stateMutability":"nonpayable","type":"function"},{"inputs":[{"internalType":"uint256","name":"proposalId","type":"uint256"}],"name":"getProposal","outputs":[{"internalType":"string","name":"","type":"string"},{"internalType":"bool","name":"","type":"bool"}],"stateMutability":"view","type":"function"},{"inputs":[{"internalType":"address","name":"","type":"address"},{"internalType":"uint256","name":"","type":"uint256"}],"name":"hasVoted","outputs":[{"internalType":"bool","name":"","type":"bool"}],"stateMutability":"view","type":"function"},{"inputs":[{"internalType":"uint256","name":"","type":"uint256"}],"name":"proposals","outputs":[{"internalType":"string","name":"description","type":"string"},{"internalType":"uint256","name":"approveVotes","type":"uint256"},{"internalType":"uint256","name":"disapproveVotes","type":"uint256"},{"internalType":"bool","name":"resolved","type":"bool"},{"internalType":"bool","name":"approved","type":"bool"}],"stateMutability":"view","type":"function"},{"inputs":[{"internalType":"uint256","name":"proposalId","type":"uint256"}],"name":"rejectProposal","outputs":[],"stateMutability":"nonpayable","type":"function"},{"inputs":[{"internalType":"uint256","name":"proposalId","type":"uint256"},{"internalType":"bool","name":"approve","type":"bool"}],"name":"vote","outputs":[],"stateMutability":"nonpayable","type":"function"}],"evm":{"bytecode":{"linkReferences":{},"object":"608060405234801561001057600080fd5b50610e5e806100206000396000f3fe608060405234801561001057600080fd5b506004361061007d5760003560e01c806398951b561161005b57806398951b5614610102578063bc28d8781461011e578063c7f758a81461013a578063c9d27afe1461016b5761007d565b8063013cf08b1461008257806342545825146100b657806349c2a1a6146100e6575b600080fd5b61009c6004803603810190610097919061097c565b610187565b6040516100ad959493929190610b29565b60405180910390f35b6100d060048036038101906100cb91906108ff565b61026f565b6040516100dd9190610ade565b60405180910390f35b61010060048036038101906100fb919061093b565b61029e565b005b61011c6004803603810190610117919061097c565b61036e565b005b6101386004803603810190610133919061097c565b610449565b005b610154600480360381019061014f919061097c565b610524565b604051610162929190610af9565b60405180910390f35b610185600480360381019061018091906109a5565b61061f565b005b6000818154811061019757600080fd5b90600052602060002090600402016000915090508060000180546101ba90610cca565b80601f01602080910402602001604051908101604052809291908181526020018280546101e690610cca565b80156102335780601f1061020857610100808354040283529160200191610233565b820191906000526020600020905b81548152906001019060200180831161021657829003601f168201915b5050505050908060010154908060020154908060030160009054906101000a900460ff16908060030160019054906101000a900460ff16905085565b60016020528160005260406000206020528060005260406000206000915091509054906101000a900460ff1681565b60006040518060a00160405280838152602001600081526020016000815260200160001515815260200160001515815250908060018154018082558091505060019003906000526020600020906004020160009091909190915060008201518160000190805190602001906103149291906107b5565b50602082015181600101556040820151816002015560608201518160030160006101000a81548160ff02191690831515021790555060808201518160030160016101000a81548160ff021916908315150217905550505050565b60008082815481106103a9577f4e487b7100000000000000000000000000000000000000000000000000000000600052603260045260246000fd5b906000526020600020906004020190508060030160009054906101000a900460ff161561040b576040517f08c379a000000000000000000000000000000000000000000000000000000000815260040161040290610b83565b60405180910390fd5b60018160030160006101000a81548160ff02191690831515021790555060018160030160016101000a81548160ff0219169083151502179055505050565b6000808281548110610484577f4e487b7100000000000000000000000000000000000000000000000000000000600052603260045260246000fd5b906000526020600020906004020190508060030160009054906101000a900460ff16156104e6576040517f08c379a00000000000000000000000000000000000000000000000000000000081526004016104dd90610b83565b60405180910390fd5b60018160030160006101000a81548160ff02191690831515021790555060008160030160016101000a81548160ff0219169083151502179055505050565b606060008060008481548110610563577f4e487b7100000000000000000000000000000000000000000000000000000000600052603260045260246000fd5b90600052602060002090600402019050806000018160030160019054906101000a900460ff1681805461059590610cca565b80601f01602080910402602001604051908101604052809291908181526020018280546105c190610cca565b801561060e5780601f106105e35761010080835404028352916020019161060e565b820191906000526020600020905b8154815290600101906020018083116105f157829003601f168201915b505050505091509250925050915091565b600160003373ffffffffffffffffffffffffffffffffffffffff1673ffffffffffffffffffffffffffffffffffffffff168152602001908152602001600020600083815260200190815260200160002060009054906101000a900460ff16156106bd576040517f08c379a00000000000000000000000000000000000000000000000000000000081526004016106b490610ba3565b60405180910390fd5b60018060003373ffffffffffffffffffffffffffffffffffffffff1673ffffffffffffffffffffffffffffffffffffffff168152602001908152602001600020600084815260200190815260200160002060006101000a81548160ff0219169083151502179055506000808381548110610760577f4e487b7100000000000000000000000000000000000000000000000000000000600052603260045260246000fd5b9060005260206000209060040201905081156107955780600101600081548092919061078b90610cfc565b91905055506107b0565b8060020160008154809291906107aa90610cfc565b91905055505b505050565b8280546107c190610cca565b90600052602060002090601f0160209004810192826107e3576000855561082a565b82601f106107fc57805160ff191683800117855561082a565b8280016001018555821561082a579182015b8281111561082957825182559160200191906001019061080e565b5b509050610837919061083b565b5090565b5b8082111561085457600081600090555060010161083c565b5090565b600061086b61086684610bf4565b610bc3565b90508281526020810184848401111561088357600080fd5b61088e848285610c88565b509392505050565b6000813590506108a581610de3565b92915050565b6000813590506108ba81610dfa565b92915050565b600082601f8301126108d157600080fd5b81356108e1848260208601610858565b91505092915050565b6000813590506108f981610e11565b92915050565b6000806040838503121561091257600080fd5b600061092085828601610896565b9250506020610931858286016108ea565b9150509250929050565b60006020828403121561094d57600080fd5b600082013567ffffffffffffffff81111561096757600080fd5b610973848285016108c0565b91505092915050565b60006020828403121561098e57600080fd5b600061099c848285016108ea565b91505092915050565b600080604083850312156109b857600080fd5b60006109c6858286016108ea565b92505060206109d7858286016108ab565b9150509250929050565b6109ea81610c52565b82525050565b60006109fb82610c24565b610a058185610c2f565b9350610a15818560208601610c97565b610a1e81610dd2565b840191505092915050565b6000610a36601a83610c2f565b91507f50726f706f73616c20616c7265616479207265736f6c7665642e0000000000006000830152602082019050919050565b6000610a76602883610c2f565b91507f596f75206861766520616c726561647920766f746564206f6e2074686973207060008301527f726f706f73616c2e0000000000000000000000000000000000000000000000006020830152604082019050919050565b610ad881610c7e565b82525050565b6000602082019050610af360008301846109e1565b92915050565b60006040820190508181036000830152610b1381856109f0565b9050610b2260208301846109e1565b9392505050565b600060a0820190508181036000830152610b4381886109f0565b9050610b526020830187610acf565b610b5f6040830186610acf565b610b6c60608301856109e1565b610b7960808301846109e1565b9695505050505050565b60006020820190508181036000830152610b9c81610a29565b9050919050565b60006020820190508181036000830152610bbc81610a69565b9050919050565b6000604051905081810181811067ffffffffffffffff82111715610bea57610be9610da3565b5b8060405250919050565b600067ffffffffffffffff821115610c0f57610c0e610da3565b5b601f19601f8301169050602081019050919050565b600081519050919050565b600082825260208201905092915050565b6000610c4b82610c5e565b9050919050565b60008115159050919050565b600073ffffffffffffffffffffffffffffffffffffffff82169050919050565b6000819050919050565b82818337600083830152505050565b60005b83811015610cb5578082015181840152602081019050610c9a565b83811115610cc4576000848401525b50505050565b60006002820490506001821680610ce257607f821691505b60208210811415610cf657610cf5610d74565b5b50919050565b6000610d0782610c7e565b91507fffffffffffffffffffffffffffffffffffffffffffffffffffffffffffffffff821415610d3a57610d39610d45565b5b600182019050919050565b7f4e487b7100000000000000000000000000000000000000000000000000000000600052601160045260246000fd5b7f4e487b7100000000000000000000000000000000000000000000000000000000600052602260045260246000fd5b7f4e487b7100000000000000000000000000000000000000000000000000000000600052604160045260246000fd5b6000601f19601f8301169050919050565b610dec81610c40565b8114610df757600080fd5b50565b610e0381610c52565b8114610e0e57600080fd5b50565b610e1a81610c7e565b8114610e2557600080fd5b5056fea26469706673582212207da8c15a95a00b94f1f05fcdbe27307d3fdcf06f24b123b164d730332ba3372064736f6c63430008000033","opcodes":"PUSH1 0x80 PUSH1 0x40 MSTORE CALLVALUE DUP1 ISZERO PUSH2 0x10 JUMPI PUSH1 0x0 DUP1 REVERT JUMPDEST POP PUSH2 0xE5E DUP1 PUSH2 0x20 PUSH1 0x0 CODECOPY PUSH1 0x0 RETURN INVALID PUSH1 0x80 PUSH1 0x40 MSTORE CALLVALUE DUP1 ISZERO PUSH2 0x10 JUMPI PUSH1 0x0 DUP1 REVERT JUMPDEST POP PUSH1 0x4 CALLDATASIZE LT PUSH2 0x7D JUMPI PUSH1 0x0 CALLDATALOAD PUSH1 0xE0 SHR DUP1 PUSH4 0x98951B56 GT PUSH2 0x5B JUMPI DUP1 PUSH4 0x98951B56 EQ PUSH2 0x102 JUMPI DUP1 PUSH4 0xBC28D878 EQ PUSH2 0x11E JUMPI DUP1 PUSH4 0xC7F758A8 EQ PUSH2 0x13A JUMPI DUP1 PUSH4 0xC9D27AFE EQ PUSH2 0x16B JUMPI PUSH2 0x7D JUMP JUMPDEST DUP1 PUSH4 0x13CF08B EQ PUSH2 0x82 JUMPI DUP1 PUSH4 0x42545825 EQ PUSH2 0xB6 JUMPI DUP1 PUSH4 0x49C2A1A6 EQ PUSH2 0xE6 JUMPI JUMPDEST PUSH1 0x0 DUP1 REVERT JUMPDEST PUSH2 0x9C PUSH1 0x4 DUP1 CALLDATASIZE SUB DUP2 ADD SWAP1 PUSH2 0x97 SWAP2 SWAP1 PUSH2 0x97C JUMP JUMPDEST PUSH2 0x187 JUMP JUMPDEST PUSH1 0x40 MLOAD PUSH2 0xAD SWAP6 SWAP5 SWAP4 SWAP3 SWAP2 SWAP1 PUSH2 0xB29 JUMP JUMPDEST PUSH1 0x40 MLOAD DUP1 SWAP2 SUB SWAP1 RETURN JUMPDEST PUSH2 0xD0 PUSH1 0x4 DUP1 CALLDATASIZE SUB DUP2 ADD SWAP1 PUSH2 0xCB SWAP2 SWAP1 PUSH2 0x8FF JUMP JUMPDEST PUSH2 0x26F JUMP JUMPDEST PUSH1 0x40 MLOAD PUSH2 0xDD SWAP2 SWAP1 PUSH2 0xADE JUMP JUMPDEST PUSH1 0x40 MLOAD DUP1 SWAP2 SUB SWAP1 RETURN JUMPDEST PUSH2 0x100 PUSH1 0x4 DUP1 CALLDATASIZE SUB DUP2 ADD SWAP1 PUSH2 0xFB SWAP2 SWAP1 PUSH2 0x93B JUMP JUMPDEST PUSH2 0x29E JUMP JUMPDEST STOP JUMPDEST PUSH2 0x11C PUSH1 0x4 DUP1 CALLDATASIZE SUB DUP2 ADD SWAP1 PUSH2 0x117 SWAP2 SWAP1 PUSH2 0x97C JUMP JUMPDEST PUSH2 0x36E JUMP JUMPDEST STOP JUMPDEST PUSH2 0x138 PUSH1 0x4 DUP1 CALLDATASIZE SUB DUP2 ADD SWAP1 PUSH2 0x133 SWAP2 SWAP1 PUSH2 0x97C JUMP JUMPDEST PUSH2 0x449 JUMP JUMPDEST STOP JUMPDEST PUSH2 0x154 PUSH1 0x4 DUP1 CALLDATASIZE SUB DUP2 ADD SWAP1 PUSH2 0x14F SWAP2 SWAP1 PUSH2 0x97C JUMP JUMPDEST PUSH2 0x524 JUMP JUMPDEST PUSH1 0x40 MLOAD PUSH2 0x162 SWAP3 SWAP2 SWAP1 PUSH2 0xAF9 JUMP JUMPDEST PUSH1 0x40 MLOAD DUP1 SWAP2 SUB SWAP1 RETURN JUMPDEST PUSH2 0x185 PUSH1 0x4 DUP1 CALLDATASIZE SUB DUP2 ADD SWAP1 PUSH2 0x180 SWAP2 SWAP1 PUSH2 0x9A5 JUMP JUMPDEST PUSH2 0x61F JUMP JUMPDEST STOP JUMPDEST PUSH1 0x0 DUP2 DUP2 SLOAD DUP2 LT PUSH2 0x197 JUMPI PUSH1 0x0 DUP1 REVERT JUMPDEST SWAP1 PUSH1 0x0 MSTORE PUSH1 0x20 PUSH1 0x0 KECCAK256 SWAP1 PUSH1 0x4 MUL ADD PUSH1 0x0 SWAP2 POP SWAP1 POP DUP1 PUSH1 0x0 ADD DUP1 SLOAD PUSH2 0x1BA SWAP1 PUSH2 0xCCA JUMP JUMPDEST DUP1 PUSH1 0x1F ADD PUSH1 0x20 DUP1 SWAP2 DIV MUL PUSH1 0x20 ADD PUSH1 0x40 MLOAD SWAP1 DUP2 ADD PUSH1 0x40 MSTORE DUP1 SWAP3 SWAP2 SWAP1 DUP2 DUP2 MSTORE PUSH1 0x20 ADD DUP3 DUP1 SLOAD PUSH2 0x1E6 SWAP1 PUSH2 0xCCA JUMP JUMPDEST DUP1 ISZERO PUSH2 0x233 JUMPI DUP1 PUSH1 0x1F LT PUSH2 0x208 JUMPI PUSH2 0x100 DUP1 DUP4 SLOAD DIV MUL DUP4 MSTORE SWAP2 PUSH1 0x20 ADD SWAP2 PUSH2 0x233 JUMP JUMPDEST DUP3 ADD SWAP2 SWAP1 PUSH1 0x0 MSTORE PUSH1 0x20 PUSH1 0x0 KECCAK256 SWAP1 JUMPDEST DUP2 SLOAD DUP2 MSTORE SWAP1 PUSH1 0x1 ADD SWAP1 PUSH1 0x20 ADD DUP1 DUP4 GT PUSH2 0x216 JUMPI DUP3 SWAP1 SUB PUSH1 0x1F AND DUP3 ADD SWAP2 JUMPDEST POP POP POP POP POP SWAP1 DUP1 PUSH1 0x1 ADD SLOAD SWAP1 DUP1 PUSH1 0x2 ADD SLOAD SWAP1 DUP1 PUSH1 0x3 ADD PUSH1 0x0 SWAP1 SLOAD SWAP1 PUSH2 0x100 EXP SWAP1 DIV PUSH1 0xFF AND SWAP1 DUP1 PUSH1 0x3 ADD PUSH1 0x1 SWAP1 SLOAD SWAP1 PUSH2 0x100 EXP SWAP1 DIV PUSH1 0xFF AND SWAP1 POP DUP6 JUMP JUMPDEST PUSH1 0x1 PUSH1 0x20 MSTORE DUP2 PUSH1 0x0 MSTORE PUSH1 0x40 PUSH1 0x0 KECCAK256 PUSH1 0x20 MSTORE DUP1 PUSH1 0x0 MSTORE PUSH1 0x40 PUSH1 0x0 KECCAK256 PUSH1 0x0 SWAP2 POP SWAP2 POP SWAP1 SLOAD SWAP1 PUSH2 0x100 EXP SWAP1 DIV PUSH1 0xFF AND DUP2 JUMP JUMPDEST PUSH1 0x0 PUSH1 0x40 MLOAD DUP1 PUSH1 0xA0 ADD PUSH1 0x40 MSTORE DUP1 DUP4 DUP2 MSTORE PUSH1 0x20 ADD PUSH1 0x0 DUP2 MSTORE PUSH1 0x20 ADD PUSH1 0x0 DUP2 MSTORE PUSH1 0x20 ADD PUSH1 0x0 ISZERO ISZERO DUP2 MSTORE PUSH1 0x20 ADD PUSH1 0x0 ISZERO ISZERO DUP2 MSTORE POP SWAP1 DUP1 PUSH1 0x1 DUP2 SLOAD ADD DUP1 DUP3 SSTORE DUP1 SWAP2 POP POP PUSH1 0x1 SWAP1 SUB SWAP1 PUSH1 0x0 MSTORE PUSH1 0x20 PUSH1 0x0 KECCAK256 SWAP1 PUSH1 0x4 MUL ADD PUSH1 0x0 SWAP1 SWAP2 SWAP1 SWAP2 SWAP1 SWAP2 POP PUSH1 0x0 DUP3 ADD MLOAD DUP2 PUSH1 0x0 ADD SWAP1 DUP1 MLOAD SWAP1 PUSH1 0x20 ADD SWAP1 PUSH2 0x314 SWAP3 SWAP2 SWAP1 PUSH2 0x7B5 JUMP JUMPDEST POP PUSH1 0x20 DUP3 ADD MLOAD DUP2 PUSH1 0x1 ADD SSTORE PUSH1 0x40 DUP3 ADD MLOAD DUP2 PUSH1 0x2 ADD SSTORE PUSH1 0x60 DUP3 ADD MLOAD DUP2 PUSH1 0x3 ADD PUSH1 0x0 PUSH2 0x100 EXP DUP2 SLOAD DUP2 PUSH1 0xFF MUL NOT AND SWAP1 DUP4 ISZERO ISZERO MUL OR SWAP1 SSTORE POP PUSH1 0x80 DUP3 ADD MLOAD DUP2 PUSH1 0x3 ADD PUSH1 0x1 PUSH2 0x100 EXP DUP2 SLOAD DUP2 PUSH1 0xFF MUL NOT AND SWAP1 DUP4 ISZERO ISZERO MUL OR SWAP1 SSTORE POP POP POP POP JUMP JUMPDEST PUSH1 0x0 DUP1 DUP3 DUP2 SLOAD DUP2 LT PUSH2 0x3A9 JUMPI PUSH32 0x4E487B7100000000000000000000000000000000000000000000000000000000 PUSH1 0x0 MSTORE PUSH1 0x32 PUSH1 0x4 MSTORE PUSH1 0x24 PUSH1 0x0 REVERT JUMPDEST SWAP1 PUSH1 0x0 MSTORE PUSH1 0x20 PUSH1 0x0 KECCAK256 SWAP1 PUSH1 0x4 MUL ADD SWAP1 POP DUP1 PUSH1 0x3 ADD PUSH1 0x0 SWAP1 SLOAD SWAP1 PUSH2 0x100 EXP SWAP1 DIV PUSH1 0xFF AND ISZERO PUSH2 0x40B JUMPI PUSH1 0x40 MLOAD PUSH32 0x8C379A000000000000000000000000000000000000000000000000000000000 DUP2 MSTORE PUSH1 0x4 ADD PUSH2 0x402 SWAP1 PUSH2 0xB83 JUMP JUMPDEST PUSH1 0x40 MLOAD DUP1 SWAP2 SUB SWAP1 REVERT JUMPDEST PUSH1 0x1 DUP2 PUSH1 0x3 ADD PUSH1 0x0 PUSH2 0x100 EXP DUP2 SLOAD DUP2 PUSH1 0xFF MUL NOT AND SWAP1 DUP4 ISZERO ISZERO MUL OR SWAP1 SSTORE POP PUSH1 0x1 DUP2 PUSH1 0x3 ADD PUSH1 0x1 PUSH2 0x100 EXP DUP2 SLOAD DUP2 PUSH1 0xFF MUL NOT AND SWAP1 DUP4 ISZERO ISZERO MUL OR SWAP1 SSTORE POP POP POP JUMP JUMPDEST PUSH1 0x0 DUP1 DUP3 DUP2 SLOAD DUP2 LT PUSH2 0x484 JUMPI PUSH32 0x4E487B7100000000000000000000000000000000000000000000000000000000 PUSH1 0x0 MSTORE PUSH1 0x32 PUSH1 0x4 MSTORE PUSH1 0x24 PUSH1 0x0 REVERT JUMPDEST SWAP1 PUSH1 0x0 MSTORE PUSH1 0x20 PUSH1 0x0 KECCAK256 SWAP1 PUSH1 0x4 MUL ADD SWAP1 POP DUP1 PUSH1 0x3 ADD PUSH1 0x0 SWAP1 SLOAD SWAP1 PUSH2 0x100 EXP SWAP1 DIV PUSH1 0xFF AND ISZERO PUSH2 0x4E6 JUMPI PUSH1 0x40 MLOAD PUSH32 0x8C379A000000000000000000000000000000000000000000000000000000000 DUP2 MSTORE PUSH1 0x4 ADD PUSH2 0x4DD SWAP1 PUSH2 0xB83 JUMP JUMPDEST PUSH1 0x40 MLOAD DUP1 SWAP2 SUB SWAP1 REVERT JUMPDEST PUSH1 0x1 DUP2 PUSH1 0x3 ADD PUSH1 0x0 PUSH2 0x100 EXP DUP2 SLOAD DUP2 PUSH1 0xFF MUL NOT AND SWAP1 DUP4 ISZERO ISZERO MUL OR SWAP1 SSTORE POP PUSH1 0x0 DUP2 PUSH1 0x3 ADD PUSH1 0x1 PUSH2 0x100 EXP DUP2 SLOAD DUP2 PUSH1 0xFF MUL NOT AND SWAP1 DUP4 ISZERO ISZERO MUL OR SWAP1 SSTORE POP POP POP JUMP JUMPDEST PUSH1 0x60 PUSH1 0x0 DUP1 PUSH1 0x0 DUP5 DUP2 SLOAD DUP2 LT PUSH2 0x563 JUMPI PUSH32 0x4E487B7100000000000000000000000000000000000000000000000000000000 PUSH1 0x0 MSTORE PUSH1 0x32 PUSH1 0x4 MSTORE PUSH1 0x24 PUSH1 0x0 REVERT JUMPDEST SWAP1 PUSH1 0x0 MSTORE PUSH1 0x20 PUSH1 0x0 KECCAK256 SWAP1 PUSH1 0x4 MUL ADD SWAP1 POP DUP1 PUSH1 0x0 ADD DUP2 PUSH1 0x3 ADD PUSH1 0x1 SWAP1 SLOAD SWAP1 PUSH2 0x100 EXP SWAP1 DIV PUSH1 0xFF AND DUP2 DUP1 SLOAD PUSH2 0x595 SWAP1 PUSH2 0xCCA JUMP JUMPDEST DUP1 PUSH1 0x1F ADD PUSH1 0x20 DUP1 SWAP2 DIV MUL PUSH1 0x20 ADD PUSH1 0x40 MLOAD SWAP1 DUP2 ADD PUSH1 0x40 MSTORE DUP1 SWAP3 SWAP2 SWAP1 DUP2 DUP2 MSTORE PUSH1 0x20 ADD DUP3 DUP1 SLOAD PUSH2 0x5C1 SWAP1 PUSH2 0xCCA JUMP JUMPDEST DUP1 ISZERO PUSH2 0x60E JUMPI DUP1 PUSH1 0x1F LT PUSH2 0x5E3 JUMPI PUSH2 0x100 DUP1 DUP4 SLOAD DIV MUL DUP4 MSTORE SWAP2 PUSH1 0x20 ADD SWAP2 PUSH2 0x60E JUMP JUMPDEST DUP3 ADD SWAP2 SWAP1 PUSH1 0x0 MSTORE PUSH1 0x20 PUSH1 0x0 KECCAK256 SWAP1 JUMPDEST DUP2 SLOAD DUP2 MSTORE SWAP1 PUSH1 0x1 ADD SWAP1 PUSH1 0x20 ADD DUP1 DUP4 GT PUSH2 0x5F1 JUMPI DUP3 SWAP1 SUB PUSH1 0x1F AND DUP3 ADD SWAP2 JUMPDEST POP POP POP POP POP SWAP2 POP SWAP3 POP SWAP3 POP POP SWAP2 POP SWAP2 JUMP JUMPDEST PUSH1 0x1 PUSH1 0x0 CALLER PUSH20 0xFFFFFFFFFFFFFFFFFFFFFFFFFFFFFFFFFFFFFFFF AND PUSH20 0xFFFFFFFFFFFFFFFFFFFFFFFFFFFFFFFFFFFFFFFF AND DUP2 MSTORE PUSH1 0x20 ADD SWAP1 DUP2 MSTORE PUSH1 0x20 ADD PUSH1 0x0 KECCAK256 PUSH1 0x0 DUP4 DUP2 MSTORE PUSH1 0x20 ADD SWAP1 DUP2 MSTORE PUSH1 0x20 ADD PUSH1 0x0 KECCAK256 PUSH1 0x0 SWAP1 SLOAD SWAP1 PUSH2 0x100 EXP SWAP1 DIV PUSH1 0xFF AND ISZERO PUSH2 0x6BD JUMPI PUSH1 0x40 MLOAD PUSH32 0x8C379A000000000000000000000000000000000000000000000000000000000 DUP2 MSTORE PUSH1 0x4 ADD PUSH2 0x6B4 SWAP1 PUSH2 0xBA3 JUMP JUMPDEST PUSH1 0x40 MLOAD DUP1 SWAP2 SUB SWAP1 REVERT JUMPDEST PUSH1 0x1 DUP1 PUSH1 0x0 CALLER PUSH20 0xFFFFFFFFFFFFFFFFFFFFFFFFFFFFFFFFFFFFFFFF AND PUSH20 0xFFFFFFFFFFFFFFFFFFFFFFFFFFFFFFFFFFFFFFFF AND DUP2 MSTORE PUSH1 0x20 ADD SWAP1 DUP2 MSTORE PUSH1 0x20 ADD PUSH1 0x0 KECCAK256 PUSH1 0x0 DUP5 DUP2 MSTORE PUSH1 0x20 ADD SWAP1 DUP2 MSTORE PUSH1 0x20 ADD PUSH1 0x0 KECCAK256 PUSH1 0x0 PUSH2 0x100 EXP DUP2 SLOAD DUP2 PUSH1 0xFF MUL NOT AND SWAP1 DUP4 ISZERO ISZERO MUL OR SWAP1 SSTORE POP PUSH1 0x0 DUP1 DUP4 DUP2 SLOAD DUP2 LT PUSH2 0x760 JUMPI PUSH32 0x4E487B7100000000000000000000000000000000000000000000000000000000 PUSH1 0x0 MSTORE PUSH1 0x32 PUSH1 0x4 MSTORE PUSH1 0x24 PUSH1 0x0 REVERT JUMPDEST SWAP1 PUSH1 0x0 MSTORE PUSH1 0x20 PUSH1 0x0 KECCAK256 SWAP1 PUSH1 0x4 MUL ADD SWAP1 POP DUP2 ISZERO PUSH2 0x795 JUMPI DUP1 PUSH1 0x1 ADD PUSH1 0x0 DUP2 SLOAD DUP1 SWAP3 SWAP2 SWAP1 PUSH2 0x78B SWAP1 PUSH2 0xCFC JUMP JUMPDEST SWAP2 SWAP1 POP SSTORE POP PUSH2 0x7B0 JUMP JUMPDEST DUP1 PUSH1 0x2 ADD PUSH1 0x0 DUP2 SLOAD DUP1 SWAP3 SWAP2 SWAP1 PUSH2 0x7AA SWAP1 PUSH2 0xCFC JUMP JUMPDEST SWAP2 SWAP1 POP SSTORE POP JUMPDEST POP POP POP JUMP JUMPDEST DUP3 DUP1 SLOAD PUSH2 0x7C1 SWAP1 PUSH2 0xCCA JUMP JUMPDEST SWAP1 PUSH1 0x0 MSTORE PUSH1 0x20 PUSH1 0x0 KECCAK256 SWAP1 PUSH1 0x1F ADD PUSH1 0x20 SWAP1 DIV DUP2 ADD SWAP3 DUP3 PUSH2 0x7E3 JUMPI PUSH1 0x0 DUP6 SSTORE PUSH2 0x82A JUMP JUMPDEST DUP3 PUSH1 0x1F LT PUSH2 0x7FC JUMPI DUP1 MLOAD PUSH1 0xFF NOT AND DUP4 DUP1 ADD OR DUP6 SSTORE PUSH2 0x82A JUMP JUMPDEST DUP3 DUP1 ADD PUSH1 0x1 ADD DUP6 SSTORE DUP3 ISZERO PUSH2 0x82A JUMPI SWAP2 DUP3 ADD JUMPDEST DUP3 DUP2 GT ISZERO PUSH2 0x829 JUMPI DUP3 MLOAD DUP3 SSTORE SWAP2 PUSH1 0x20 ADD SWAP2 SWAP1 PUSH1 0x1 ADD SWAP1 PUSH2 0x80E JUMP JUMPDEST JUMPDEST POP SWAP1 POP PUSH2 0x837 SWAP2 SWAP1 PUSH2 0x83B JUMP JUMPDEST POP SWAP1 JUMP JUMPDEST JUMPDEST DUP1 DUP3 GT ISZERO PUSH2 0x854 JUMPI PUSH1 0x0 DUP2 PUSH1 0x0 SWAP1 SSTORE POP PUSH1 0x1 ADD PUSH2 0x83C JUMP JUMPDEST POP SWAP1 JUMP JUMPDEST PUSH1 0x0 PUSH2 0x86B PUSH2 0x866 DUP5 PUSH2 0xBF4 JUMP JUMPDEST PUSH2 0xBC3 JUMP JUMPDEST SWAP1 POP DUP3 DUP2 MSTORE PUSH1 0x20 DUP2 ADD DUP5 DUP5 DUP5 ADD GT ISZERO PUSH2 0x883 JUMPI PUSH1 0x0 DUP1 REVERT JUMPDEST PUSH2 0x88E DUP5 DUP3 DUP6 PUSH2 0xC88 JUMP JUMPDEST POP SWAP4 SWAP3 POP POP POP JUMP JUMPDEST PUSH1 0x0 DUP2 CALLDATALOAD SWAP1 POP PUSH2 0x8A5 DUP2 PUSH2 0xDE3 JUMP JUMPDEST SWAP3 SWAP2 POP POP JUMP JUMPDEST PUSH1 0x0 DUP2 CALLDATALOAD SWAP1 POP PUSH2 0x8BA DUP2 PUSH2 0xDFA JUMP JUMPDEST SWAP3 SWAP2 POP POP JUMP JUMPDEST PUSH1 0x0 DUP3 PUSH1 0x1F DUP4 ADD SLT PUSH2 0x8D1 JUMPI PUSH1 0x0 DUP1 REVERT JUMPDEST DUP2 CALLDATALOAD PUSH2 0x8E1 DUP5 DUP3 PUSH1 0x20 DUP7 ADD PUSH2 0x858 JUMP JUMPDEST SWAP2 POP POP SWAP3 SWAP2 POP POP JUMP JUMPDEST PUSH1 0x0 DUP2 CALLDATALOAD SWAP1 POP PUSH2 0x8F9 DUP2 PUSH2 0xE11 JUMP JUMPDEST SWAP3 SWAP2 POP POP JUMP JUMPDEST PUSH1 0x0 DUP1 PUSH1 0x40 DUP4 DUP6 SUB SLT ISZERO PUSH2 0x912 JUMPI PUSH1 0x0 DUP1 REVERT JUMPDEST PUSH1 0x0 PUSH2 0x920 DUP6 DUP3 DUP7 ADD PUSH2 0x896 JUMP JUMPDEST SWAP3 POP POP PUSH1 0x20 PUSH2 0x931 DUP6 DUP3 DUP7 ADD PUSH2 0x8EA JUMP JUMPDEST SWAP2 POP POP SWAP3 POP SWAP3 SWAP1 POP JUMP JUMPDEST PUSH1 0x0 PUSH1 0x20 DUP3 DUP5 SUB SLT ISZERO PUSH2 0x94D JUMPI PUSH1 0x0 DUP1 REVERT JUMPDEST PUSH1 0x0 DUP3 ADD CALLDATALOAD PUSH8 0xFFFFFFFFFFFFFFFF DUP2 GT ISZERO PUSH2 0x967 JUMPI PUSH1 0x0 DUP1 REVERT JUMPDEST PUSH2 0x973 DUP5 DUP3 DUP6 ADD PUSH2 0x8C0 JUMP JUMPDEST SWAP2 POP POP SWAP3 SWAP2 POP POP JUMP JUMPDEST PUSH1 0x0 PUSH1 0x20 DUP3 DUP5 SUB SLT ISZERO PUSH2 0x98E JUMPI PUSH1 0x0 DUP1 REVERT JUMPDEST PUSH1 0x0 PUSH2 0x99C DUP5 DUP3 DUP6 ADD PUSH2 0x8EA JUMP JUMPDEST SWAP2 POP POP SWAP3 SWAP2 POP POP JUMP JUMPDEST PUSH1 0x0 DUP1 PUSH1 0x40 DUP4 DUP6 SUB SLT ISZERO PUSH2 0x9B8 JUMPI PUSH1 0x0 DUP1 REVERT JUMPDEST PUSH1 0x0 PUSH2 0x9C6 DUP6 DUP3 DUP7 ADD PUSH2 0x8EA JUMP JUMPDEST SWAP3 POP POP PUSH1 0x20 PUSH2 0x9D7 DUP6 DUP3 DUP7 ADD PUSH2 0x8AB JUMP JUMPDEST SWAP2 POP POP SWAP3 POP SWAP3 SWAP1 POP JUMP JUMPDEST PUSH2 0x9EA DUP2 PUSH2 0xC52 JUMP JUMPDEST DUP3 MSTORE POP POP JUMP JUMPDEST PUSH1 0x0 PUSH2 0x9FB DUP3 PUSH2 0xC24 JUMP JUMPDEST PUSH2 0xA05 DUP2 DUP6 PUSH2 0xC2F JUMP JUMPDEST SWAP4 POP PUSH2 0xA15 DUP2 DUP6 PUSH1 0x20 DUP7 ADD PUSH2 0xC97 JUMP JUMPDEST PUSH2 0xA1E DUP2 PUSH2 0xDD2 JUMP JUMPDEST DUP5 ADD SWAP2 POP POP SWAP3 SWAP2 POP POP JUMP JUMPDEST PUSH1 0x0 PUSH2 0xA36 PUSH1 0x1A DUP4 PUSH2 0xC2F JUMP JUMPDEST SWAP2 POP PUSH32 0x50726F706F73616C20616C7265616479207265736F6C7665642E000000000000 PUSH1 0x0 DUP4 ADD MSTORE PUSH1 0x20 DUP3 ADD SWAP1 POP SWAP2 SWAP1 POP JUMP JUMPDEST PUSH1 0x0 PUSH2 0xA76 PUSH1 0x28 DUP4 PUSH2 0xC2F JUMP JUMPDEST SWAP2 POP PUSH32 0x596F75206861766520616C726561647920766F746564206F6E20746869732070 PUSH1 0x0 DUP4 ADD MSTORE PUSH32 0x726F706F73616C2E000000000000000000000000000000000000000000000000 PUSH1 0x20 DUP4 ADD MSTORE PUSH1 0x40 DUP3 ADD SWAP1 POP SWAP2 SWAP1 POP JUMP JUMPDEST PUSH2 0xAD8 DUP2 PUSH2 0xC7E JUMP JUMPDEST DUP3 MSTORE POP POP JUMP JUMPDEST PUSH1 0x0 PUSH1 0x20 DUP3 ADD SWAP1 POP PUSH2 0xAF3 PUSH1 0x0 DUP4 ADD DUP5 PUSH2 0x9E1 JUMP JUMPDEST SWAP3 SWAP2 POP POP JUMP JUMPDEST PUSH1 0x0 PUSH1 0x40 DUP3 ADD SWAP1 POP DUP2 DUP2 SUB PUSH1 0x0 DUP4 ADD MSTORE PUSH2 0xB13 DUP2 DUP6 PUSH2 0x9F0 JUMP JUMPDEST SWAP1 POP PUSH2 0xB22 PUSH1 0x20 DUP4 ADD DUP5 PUSH2 0x9E1 JUMP JUMPDEST SWAP4 SWAP3 POP POP POP JUMP JUMPDEST PUSH1 0x0 PUSH1 0xA0 DUP3 ADD SWAP1 POP DUP2 DUP2 SUB PUSH1 0x0 DUP4 ADD MSTORE PUSH2 0xB43 DUP2 DUP9 PUSH2 0x9F0 JUMP JUMPDEST SWAP1 POP PUSH2 0xB52 PUSH1 0x20 DUP4 ADD DUP8 PUSH2 0xACF JUMP JUMPDEST PUSH2 0xB5F PUSH1 0x40 DUP4 ADD DUP7 PUSH2 0xACF JUMP JUMPDEST PUSH2 0xB6C PUSH1 0x60 DUP4 ADD DUP6 PUSH2 0x9E1 JUMP JUMPDEST PUSH2 0xB79 PUSH1 0x80 DUP4 ADD DUP5 PUSH2 0x9E1 JUMP JUMPDEST SWAP7 SWAP6 POP POP POP POP POP POP JUMP JUMPDEST PUSH1 0x0 PUSH1 0x20 DUP3 ADD SWAP1 POP DUP2 DUP2 SUB PUSH1 0x0 DUP4 ADD MSTORE PUSH2 0xB9C DUP2 PUSH2 0xA29 JUMP JUMPDEST SWAP1 POP SWAP2 SWAP1 POP JUMP JUMPDEST PUSH1 0x0 PUSH1 0x20 DUP3 ADD SWAP1 POP DUP2 DUP2 SUB PUSH1 0x0 DUP4 ADD MSTORE PUSH2 0xBBC DUP2 PUSH2 0xA69 JUMP JUMPDEST SWAP1 POP SWAP2 SWAP1 POP JUMP JUMPDEST PUSH1 0x0 PUSH1 0x40 MLOAD SWAP1 POP DUP2 DUP2 ADD DUP2 DUP2 LT PUSH8 0xFFFFFFFFFFFFFFFF DUP3 GT OR ISZERO PUSH2 0xBEA JUMPI PUSH2 0xBE9 PUSH2 0xDA3 JUMP JUMPDEST JUMPDEST DUP1 PUSH1 0x40 MSTORE POP SWAP2 SWAP1 POP JUMP JUMPDEST PUSH1 0x0 PUSH8 0xFFFFFFFFFFFFFFFF DUP3 GT ISZERO PUSH2 0xC0F JUMPI PUSH2 0xC0E PUSH2 0xDA3 JUMP JUMPDEST JUMPDEST PUSH1 0x1F NOT PUSH1 0x1F DUP4 ADD AND SWAP1 POP PUSH1 0x20 DUP2 ADD SWAP1 POP SWAP2 SWAP1 POP JUMP JUMPDEST PUSH1 0x0 DUP2 MLOAD SWAP1 POP SWAP2 SWAP1 POP JUMP JUMPDEST PUSH1 0x0 DUP3 DUP3 MSTORE PUSH1 0x20 DUP3 ADD SWAP1 POP SWAP3 SWAP2 POP POP JUMP JUMPDEST PUSH1 0x0 PUSH2 0xC4B DUP3 PUSH2 0xC5E JUMP JUMPDEST SWAP1 POP SWAP2 SWAP1 POP JUMP JUMPDEST PUSH1 0x0 DUP2 ISZERO ISZERO SWAP1 POP SWAP2 SWAP1 POP JUMP JUMPDEST PUSH1 0x0 PUSH20 0xFFFFFFFFFFFFFFFFFFFFFFFFFFFFFFFFFFFFFFFF DUP3 AND SWAP1 POP SWAP2 SWAP1 POP JUMP JUMPDEST PUSH1 0x0 DUP2 SWAP1 POP SWAP2 SWAP1 POP JUMP JUMPDEST DUP3 DUP2 DUP4 CALLDATACOPY PUSH1 0x0 DUP4 DUP4 ADD MSTORE POP POP POP JUMP JUMPDEST PUSH1 0x0 JUMPDEST DUP4 DUP2 LT ISZERO PUSH2 0xCB5 JUMPI DUP1 DUP3 ADD MLOAD DUP2 DUP5 ADD MSTORE PUSH1 0x20 DUP2 ADD SWAP1 POP PUSH2 0xC9A JUMP JUMPDEST DUP4 DUP2 GT ISZERO PUSH2 0xCC4 JUMPI PUSH1 0x0 DUP5 DUP5 ADD MSTORE JUMPDEST POP POP POP POP JUMP JUMPDEST PUSH1 0x0 PUSH1 0x2 DUP3 DIV SWAP1 POP PUSH1 0x1 DUP3 AND DUP1 PUSH2 0xCE2 JUMPI PUSH1 0x7F DUP3 AND SWAP2 POP JUMPDEST PUSH1 0x20 DUP3 LT DUP2 EQ ISZERO PUSH2 0xCF6 JUMPI PUSH2 0xCF5 PUSH2 0xD74 JUMP JUMPDEST JUMPDEST POP SWAP2 SWAP1 POP JUMP JUMPDEST PUSH1 0x0 PUSH2 0xD07 DUP3 PUSH2 0xC7E JUMP JUMPDEST SWAP2 POP PUSH32 0xFFFFFFFFFFFFFFFFFFFFFFFFFFFFFFFFFFFFFFFFFFFFFFFFFFFFFFFFFFFFFFFF DUP3 EQ ISZERO PUSH2 0xD3A JUMPI PUSH2 0xD39 PUSH2 0xD45 JUMP JUMPDEST JUMPDEST PUSH1 0x1 DUP3 ADD SWAP1 POP SWAP2 SWAP1 POP JUMP JUMPDEST PUSH32 0x4E487B7100000000000000000000000000000000000000000000000000000000 PUSH1 0x0 MSTORE PUSH1 0x11 PUSH1 0x4 MSTORE PUSH1 0x24 PUSH1 0x0 REVERT JUMPDEST PUSH32 0x4E487B7100000000000000000000000000000000000000000000000000000000 PUSH1 0x0 MSTORE PUSH1 0x22 PUSH1 0x4 MSTORE PUSH1 0x24 PUSH1 0x0 REVERT JUMPDEST PUSH32 0x4E487B7100000000000000000000000000000000000000000000000000000000 PUSH1 0x0 MSTORE PUSH1 0x41 PUSH1 0x4 MSTORE PUSH1 0x24 PUSH1 0x0 REVERT JUMPDEST PUSH1 0x0 PUSH1 0x1F NOT PUSH1 0x1F DUP4 ADD AND SWAP1 POP SWAP2 SWAP1 POP JUMP JUMPDEST PUSH2 0xDEC DUP2 PUSH2 0xC40 JUMP JUMPDEST DUP2 EQ PUSH2 0xDF7 JUMPI PUSH1 0x0 DUP1 REVERT JUMPDEST POP JUMP JUMPDEST PUSH2 0xE03 DUP2 PUSH2 0xC52 JUMP JUMPDEST DUP2 EQ PUSH2 0xE0E JUMPI PUSH1 0x0 DUP1 REVERT JUMPDEST POP JUMP JUMPDEST PUSH2 0xE1A DUP2 PUSH2 0xC7E JUMP JUMPDEST DUP2 EQ PUSH2 0xE25 JUMPI PUSH1 0x0 DUP1 REVERT JUMPDEST POP JUMP INVALID LOG2 PUSH5 0x6970667358 0x22 SLT KECCAK256 PUSH30 0xA8C15A95A00B94F1F05FCDBE27307D3FDCF06F24B123B164D730332BA337 KECCAK256 PUSH5 0x736F6C6343 STOP ADDMOD STOP STOP CALLER "},"methodIdentifiers":{"approveProposal(uint256)":"98951b56","createProposal(string)":"49c2a1a6","getProposal(uint256)":"c7f758a8","hasVoted(address,uint256)":"42545825","proposals(uint256)":"013cf08b","rejectProposal(uint256)":"bc28d878","vote(uint256,bool)":"c9d27afe"}}}}}