{"web3/contracts/DisputeResolution.sol":{"DisputeResolution":{"abi":[{"inputs":[],"stateMutability":"nonpayable","type":"constructor"},{"inputs":[],"name":"disputeCount","outputs":[{"internalType":"uint256","name":"","type":"uint256"}],"stateMutability":"view","type":"function"},{"inputs":[{"internalType":"uint256","name":"","type":"uint256"}],"name":"disputes","outputs":[{"internalType":"uint256","name":"approveVotes","type":"uint256"},{"internalType":"uint256","name":"disapproveVotes","type":"uint256"},{"internalType":"uint256","name":"totalJurors","type":"uint256"},{"internalType":"bool","name":"disputeResolved","type":"bool"},{"internalType":"bool","name":"proposalApproved","type":"bool"}],"stateMutability":"view","type":"function"},{"inputs":[{"internalType":"uint256","name":"proposalId","type":"uint256"}],"name":"getDisputeResult","outputs":[{"internalType":"bool","name":"","type":"bool"}],"stateMutability":"view","type":"function"},{"inputs":[{"internalType":"uint256","name":"proposalId","type":"uint256"},{"internalType":"uint256","name":"totalJurors","type":"uint256"}],"name":"startDispute","outputs":[],"stateMutability":"nonpayable","type":"function"},{"inputs":[{"internalType":"uint256","name":"proposalId","type":"uint256"},{"internalType":"bool","name":"approve","type":"bool"}],"name":"vote","outputs":[],"stateMutability":"nonpayable","type":"function"}],"evm":{"bytecode":{"linkReferences":{},"object":"608060405234801561001057600080fd5b50610762806100206000396000f3fe608060405234801561001057600080fd5b50600436106100575760003560e01c806350de9b401461005c578063564a565d1461008c578063a28889e1146100c0578063c02b5068146100de578063c9d27afe146100fa575b600080fd5b61007660048036038101906100719190610401565b610116565b6040516100839190610540565b60405180910390f35b6100a660048036038101906100a19190610401565b6101a4565b6040516100b79594939291906105b6565b60405180910390f35b6100c86101f4565b6040516100d5919061059b565b60405180910390f35b6100f860048036038101906100f39190610466565b6101fa565b005b610114600480360381019061010f919061042a565b610230565b005b600080600083815260200190815260200160002060040160009054906101000a900460ff1661017a576040517f08c379a00000000000000000000000000000000000000000000000000000000081526004016101719061057b565b60405180910390fd5b60008083815260200190815260200160002060040160019054906101000a900460ff169050919050565b60006020528060005260406000206000915090508060010154908060020154908060030154908060040160009054906101000a900460ff16908060040160019054906101000a900460ff16905085565b60015481565b6001600081548092919061020d90610686565b919050555080600080848152602001908152602001600020600301819055505050565b600080600084815260200190815260200160002090508060000160003373ffffffffffffffffffffffffffffffffffffffff1673ffffffffffffffffffffffffffffffffffffffff16815260200190815260200160002060009054906101000a900460ff16156102d5576040517f08c379a00000000000000000000000000000000000000000000000000000000081526004016102cc9061055b565b60405180910390fd5b60018160000160003373ffffffffffffffffffffffffffffffffffffffff1673ffffffffffffffffffffffffffffffffffffffff16815260200190815260200160002060006101000a81548160ff02191690831515021790555081156103545780600101600081548092919061034a90610686565b919050555061036f565b80600201600081548092919061036990610686565b91905055505b806003015481600201548260010154610388919061061a565b14156103d25760018160040160006101000a81548160ff02191690831515021790555080600201548160010154118160040160016101000a81548160ff0219169083151502179055505b505050565b6000813590506103e6816106fe565b92915050565b6000813590506103fb81610715565b92915050565b60006020828403121561041357600080fd5b6000610421848285016103ec565b91505092915050565b6000806040838503121561043d57600080fd5b600061044b858286016103ec565b925050602061045c858286016103d7565b9150509250929050565b6000806040838503121561047957600080fd5b6000610487858286016103ec565b9250506020610498858286016103ec565b9150509250929050565b6104ab81610670565b82525050565b60006104be601783610609565b91507f596f75206861766520616c726561647920766f7465642e0000000000000000006000830152602082019050919050565b60006104fe601983610609565b91507f44697370757465206e6f7420796574207265736f6c7665642e000000000000006000830152602082019050919050565b61053a8161067c565b82525050565b600060208201905061055560008301846104a2565b92915050565b60006020820190508181036000830152610574816104b1565b9050919050565b60006020820190508181036000830152610594816104f1565b9050919050565b60006020820190506105b06000830184610531565b92915050565b600060a0820190506105cb6000830188610531565b6105d86020830187610531565b6105e56040830186610531565b6105f260608301856104a2565b6105ff60808301846104a2565b9695505050505050565b600082825260208201905092915050565b60006106258261067c565b91506106308361067c565b9250827fffffffffffffffffffffffffffffffffffffffffffffffffffffffffffffffff03821115610665576106646106cf565b5b828201905092915050565b60008115159050919050565b6000819050919050565b60006106918261067c565b91507fffffffffffffffffffffffffffffffffffffffffffffffffffffffffffffffff8214156106c4576106c36106cf565b5b600182019050919050565b7f4e487b7100000000000000000000000000000000000000000000000000000000600052601160045260246000fd5b61070781610670565b811461071257600080fd5b50565b61071e8161067c565b811461072957600080fd5b5056fea264697066735822122035428102bc3e9f227469d32d779c2bca64da468300298f1f24445239e696425864736f6c63430008000033","opcodes":"PUSH1 0x80 PUSH1 0x40 MSTORE CALLVALUE DUP1 ISZERO PUSH2 0x10 JUMPI PUSH1 0x0 DUP1 REVERT JUMPDEST POP PUSH2 0x762 DUP1 PUSH2 0x20 PUSH1 0x0 CODECOPY PUSH1 0x0 RETURN INVALID PUSH1 0x80 PUSH1 0x40 MSTORE CALLVALUE DUP1 ISZERO PUSH2 0x10 JUMPI PUSH1 0x0 DUP1 REVERT JUMPDEST POP PUSH1 0x4 CALLDATASIZE LT PUSH2 0x57 JUMPI PUSH1 0x0 CALLDATALOAD PUSH1 0xE0 SHR DUP1 PUSH4 0x50DE9B40 EQ PUSH2 0x5C JUMPI DUP1 PUSH4 0x564A565D EQ PUSH2 0x8C JUMPI DUP1 PUSH4 0xA28889E1 EQ PUSH2 0xC0 JUMPI DUP1 PUSH4 0xC02B5068 EQ PUSH2 0xDE JUMPI DUP1 PUSH4 0xC9D27AFE EQ PUSH2 0xFA JUMPI JUMPDEST PUSH1 0x0 DUP1 REVERT JUMPDEST PUSH2 0x76 PUSH1 0x4 DUP1 CALLDATASIZE SUB DUP2 ADD SWAP1 PUSH2 0x71 SWAP2 SWAP1 PUSH2 0x401 JUMP JUMPDEST PUSH2 0x116 JUMP JUMPDEST PUSH1 0x40 MLOAD PUSH2 0x83 SWAP2 SWAP1 PUSH2 0x540 JUMP JUMPDEST PUSH1 0x40 MLOAD DUP1 SWAP2 SUB SWAP1 RETURN JUMPDEST PUSH2 0xA6 PUSH1 0x4 DUP1 CALLDATASIZE SUB DUP2 ADD SWAP1 PUSH2 0xA1 SWAP2 SWAP1 PUSH2 0x401 JUMP JUMPDEST PUSH2 0x1A4 JUMP JUMPDEST PUSH1 0x40 MLOAD PUSH2 0xB7 SWAP6 SWAP5 SWAP4 SWAP3 SWAP2 SWAP1 PUSH2 0x5B6 JUMP JUMPDEST PUSH1 0x40 MLOAD DUP1 SWAP2 SUB SWAP1 RETURN JUMPDEST PUSH2 0xC8 PUSH2 0x1F4 JUMP JUMPDEST PUSH1 0x40 MLOAD PUSH2 0xD5 SWAP2 SWAP1 PUSH2 0x59B JUMP JUMPDEST PUSH1 0x40 MLOAD DUP1 SWAP2 SUB SWAP1 RETURN JUMPDEST PUSH2 0xF8 PUSH1 0x4 DUP1 CALLDATASIZE SUB DUP2 ADD SWAP1 PUSH2 0xF3 SWAP2 SWAP1 PUSH2 0x466 JUMP JUMPDEST PUSH2 0x1FA JUMP JUMPDEST STOP JUMPDEST PUSH2 0x114 PUSH1 0x4 DUP1 CALLDATASIZE SUB DUP2 ADD SWAP1 PUSH2 0x10F SWAP2 SWAP1 PUSH2 0x42A JUMP JUMPDEST PUSH2 0x230 JUMP JUMPDEST STOP JUMPDEST PUSH1 0x0 DUP1 PUSH1 0x0 DUP4 DUP2 MSTORE PUSH1 0x20 ADD SWAP1 DUP2 MSTORE PUSH1 0x20 ADD PUSH1 0x0 KECCAK256 PUSH1 0x4 ADD PUSH1 0x0 SWAP1 SLOAD SWAP1 PUSH2 0x100 EXP SWAP1 DIV PUSH1 0xFF AND PUSH2 0x17A JUMPI PUSH1 0x40 MLOAD PUSH32 0x8C379A000000000000000000000000000000000000000000000000000000000 DUP2 MSTORE PUSH1 0x4 ADD PUSH2 0x171 SWAP1 PUSH2 0x57B JUMP JUMPDEST PUSH1 0x40 MLOAD DUP1 SWAP2 SUB SWAP1 REVERT JUMPDEST PUSH1 0x0 DUP1 DUP4 DUP2 MSTORE PUSH1 0x20 ADD SWAP1 DUP2 MSTORE PUSH1 0x20 ADD PUSH1 0x0 KECCAK256 PUSH1 0x4 ADD PUSH1 0x1 SWAP1 SLOAD SWAP1 PUSH2 0x100 EXP SWAP1 DIV PUSH1 0xFF AND SWAP1 POP SWAP2 SWAP1 POP JUMP JUMPDEST PUSH1 0x0 PUSH1 0x20 MSTORE DUP1 PUSH1 0x0 MSTORE PUSH1 0x40 PUSH1 0x0 KECCAK256 PUSH1 0x0 SWAP2 POP SWAP1 POP DUP1 PUSH1 0x1 ADD SLOAD SWAP1 DUP1 PUSH1 0x2 ADD SLOAD SWAP1 DUP1 PUSH1 0x3 ADD SLOAD SWAP1 DUP1 PUSH1 0x4 ADD PUSH1 0x0 SWAP1 SLOAD SWAP1 PUSH2 0x100 EXP SWAP1 DIV PUSH1 0xFF AND SWAP1 DUP1 PUSH1 0x4 ADD PUSH1 0x1 SWAP1 SLOAD SWAP1 PUSH2 0x100 EXP SWAP1 DIV PUSH1 0xFF AND SWAP1 POP DUP6 JUMP JUMPDEST PUSH1 0x1 SLOAD DUP2 JUMP JUMPDEST PUSH1 0x1 PUSH1 0x0 DUP2 SLOAD DUP1 SWAP3 SWAP2 SWAP1 PUSH2 0x20D SWAP1 PUSH2 0x686 JUMP JUMPDEST SWAP2 SWAP1 POP SSTORE POP DUP1 PUSH1 0x0 DUP1 DUP5 DUP2 MSTORE PUSH1 0x20 ADD SWAP1 DUP2 MSTORE PUSH1 0x20 ADD PUSH1 0x0 KECCAK256 PUSH1 0x3 ADD DUP2 SWAP1 SSTORE POP POP POP JUMP JUMPDEST PUSH1 0x0 DUP1 PUSH1 0x0 DUP5 DUP2 MSTORE PUSH1 0x20 ADD SWAP1 DUP2 MSTORE PUSH1 0x20 ADD PUSH1 0x0 KECCAK256 SWAP1 POP DUP1 PUSH1 0x0 ADD PUSH1 0x0 CALLER PUSH20 0xFFFFFFFFFFFFFFFFFFFFFFFFFFFFFFFFFFFFFFFF AND PUSH20 0xFFFFFFFFFFFFFFFFFFFFFFFFFFFFFFFFFFFFFFFF AND DUP2 MSTORE PUSH1 0x20 ADD SWAP1 DUP2 MSTORE PUSH1 0x20 ADD PUSH1 0x0 KECCAK256 PUSH1 0x0 SWAP1 SLOAD SWAP1 PUSH2 0x100 EXP SWAP1 DIV PUSH1 0xFF AND ISZERO PUSH2 0x2D5 JUMPI PUSH1 0x40 MLOAD PUSH32 0x8C379A000000000000000000000000000000000000000000000000000000000 DUP2 MSTORE PUSH1 0x4 ADD PUSH2 0x2CC SWAP1 PUSH2 0x55B JUMP JUMPDEST PUSH1 0x40 MLOAD DUP1 SWAP2 SUB SWAP1 REVERT JUMPDEST PUSH1 0x1 DUP2 PUSH1 0x0 ADD PUSH1 0x0 CALLER PUSH20 0xFFFFFFFFFFFFFFFFFFFFFFFFFFFFFFFFFFFFFFFF AND PUSH20 0xFFFFFFFFFFFFFFFFFFFFFFFFFFFFFFFFFFFFFFFF AND DUP2 MSTORE PUSH1 0x20 ADD SWAP1 DUP2 MSTORE PUSH1 0x20 ADD PUSH1 0x0 KECCAK256 PUSH1 0x0 PUSH2 0x100 EXP DUP2 SLOAD DUP2 PUSH1 0xFF MUL NOT AND SWAP1 DUP4 ISZERO ISZERO MUL OR SWAP1 SSTORE POP DUP2 ISZERO PUSH2 0x354 JUMPI DUP1 PUSH1 0x1 ADD PUSH1 0x0 DUP2 SLOAD DUP1 SWAP3 SWAP2 SWAP1 PUSH2 0x34A SWAP1 PUSH2 0x686 JUMP JUMPDEST SWAP2 SWAP1 POP SSTORE POP PUSH2 0x36F JUMP JUMPDEST DUP1 PUSH1 0x2 ADD PUSH1 0x0 DUP2 SLOAD DUP1 SWAP3 SWAP2 SWAP1 PUSH2 0x369 SWAP1 PUSH2 0x686 JUMP JUMPDEST SWAP2 SWAP1 POP SSTORE POP JUMPDEST DUP1 PUSH1 0x3 ADD SLOAD DUP2 PUSH1 0x2 ADD SLOAD DUP3 PUSH1 0x1 ADD SLOAD PUSH2 0x388 SWAP2 SWAP1 PUSH2 0x61A JUMP JUMPDEST EQ ISZERO PUSH2 0x3D2 JUMPI PUSH1 0x1 DUP2 PUSH1 0x4 ADD PUSH1 0x0 PUSH2 0x100 EXP DUP2 SLOAD DUP2 PUSH1 0xFF MUL NOT AND SWAP1 DUP4 ISZERO ISZERO MUL OR SWAP1 SSTORE POP DUP1 PUSH1 0x2 ADD SLOAD DUP2 PUSH1 0x1 ADD SLOAD GT DUP2 PUSH1 0x4 ADD PUSH1 0x1 PUSH2 0x100 EXP DUP2 SLOAD DUP2 PUSH1 0xFF MUL NOT AND SWAP1 DUP4 ISZERO ISZERO MUL OR SWAP1 SSTORE POP JUMPDEST POP POP POP JUMP JUMPDEST PUSH1 0x0 DUP2 CALLDATALOAD SWAP1 POP PUSH2 0x3E6 DUP2 PUSH2 0x6FE JUMP JUMPDEST SWAP3 SWAP2 POP POP JUMP JUMPDEST PUSH1 0x0 DUP2 CALLDATALOAD SWAP1 POP PUSH2 0x3FB DUP2 PUSH2 0x715 JUMP JUMPDEST SWAP3 SWAP2 POP POP JUMP JUMPDEST PUSH1 0x0 PUSH1 0x20 DUP3 DUP5 SUB SLT ISZERO PUSH2 0x413 JUMPI PUSH1 0x0 DUP1 REVERT JUMPDEST PUSH1 0x0 PUSH2 0x421 DUP5 DUP3 DUP6 ADD PUSH2 0x3EC JUMP JUMPDEST SWAP2 POP POP SWAP3 SWAP2 POP POP JUMP JUMPDEST PUSH1 0x0 DUP1 PUSH1 0x40 DUP4 DUP6 SUB SLT ISZERO PUSH2 0x43D JUMPI PUSH1 0x0 DUP1 REVERT JUMPDEST PUSH1 0x0 PUSH2 0x44B DUP6 DUP3 DUP7 ADD PUSH2 0x3EC JUMP JUMPDEST SWAP3 POP POP PUSH1 0x20 PUSH2 0x45C DUP6 DUP3 DUP7 ADD PUSH2 0x3D7 JUMP JUMPDEST SWAP2 POP POP SWAP3 POP SWAP3 SWAP1 POP JUMP JUMPDEST PUSH1 0x0 DUP1 PUSH1 0x40 DUP4 DUP6 SUB SLT ISZERO PUSH2 0x479 JUMPI PUSH1 0x0 DUP1 REVERT JUMPDEST PUSH1 0x0 PUSH2 0x487 DUP6 DUP3 DUP7 ADD PUSH2 0x3EC JUMP JUMPDEST SWAP3 POP POP PUSH1 0x20 PUSH2 0x498 DUP6 DUP3 DUP7 ADD PUSH2 0x3EC JUMP JUMPDEST SWAP2 POP POP SWAP3 POP SWAP3 SWAP1 POP JUMP JUMPDEST PUSH2 0x4AB DUP2 PUSH2 0x670 JUMP JUMPDEST DUP3 MSTORE POP POP JUMP JUMPDEST PUSH1 0x0 PUSH2 0x4BE PUSH1 0x17 DUP4 PUSH2 0x609 JUMP JUMPDEST SWAP2 POP PUSH32 0x596F75206861766520616C726561647920766F7465642E000000000000000000 PUSH1 0x0 DUP4 ADD MSTORE PUSH1 0x20 DUP3 ADD SWAP1 POP SWAP2 SWAP1 POP JUMP JUMPDEST PUSH1 0x0 PUSH2 0x4FE PUSH1 0x19 DUP4 PUSH2 0x609 JUMP JUMPDEST SWAP2 POP PUSH32 0x44697370757465206E6F7420796574207265736F6C7665642E00000000000000 PUSH1 0x0 DUP4 ADD MSTORE PUSH1 0x20 DUP3 ADD SWAP1 POP SWAP2 SWAP1 POP JUMP JUMPDEST PUSH2 0x53A DUP2 PUSH2 0x67C JUMP JUMPDEST DUP3 MSTORE POP POP JUMP JUMPDEST PUSH1 0x0 PUSH1 0x20 DUP3 ADD SWAP1 POP PUSH2 0x555 PUSH1 0x0 DUP4 ADD DUP5 PUSH2 0x4A2 JUMP JUMPDEST SWAP3 SWAP2 POP POP JUMP JUMPDEST PUSH1 0x0 PUSH1 0x20 DUP3 ADD SWAP1 POP DUP2 DUP2 SUB PUSH1 0x0 DUP4 ADD MSTORE PUSH2 0x574 DUP2 PUSH2 0x4B1 JUMP JUMPDEST SWAP1 POP SWAP2 SWAP1 POP JUMP JUMPDEST PUSH1 0x0 PUSH1 0x20 DUP3 ADD SWAP1 POP DUP2 DUP2 SUB PUSH1 0x0 DUP4 ADD MSTORE PUSH2 0x594 DUP2 PUSH2 0x4F1 JUMP JUMPDEST SWAP1 POP SWAP2 SWAP1 POP JUMP JUMPDEST PUSH1 0x0 PUSH1 0x20 DUP3 ADD SWAP1 POP PUSH2 0x5B0 PUSH1 0x0 DUP4 ADD DUP5 PUSH2 0x531 JUMP JUMPDEST SWAP3 SWAP2 POP POP JUMP JUMPDEST PUSH1 0x0 PUSH1 0xA0 DUP3 ADD SWAP1 POP PUSH2 0x5CB PUSH1 0x0 DUP4 ADD DUP9 PUSH2 0x531 JUMP JUMPDEST PUSH2 0x5D8 PUSH1 0x20 DUP4 ADD DUP8 PUSH2 0x531 JUMP JUMPDEST PUSH2 0x5E5 PUSH1 0x40 DUP4 ADD DUP7 PUSH2 0x531 JUMP JUMPDEST PUSH2 0x5F2 PUSH1 0x60 DUP4 ADD DUP6 PUSH2 0x4A2 JUMP JUMPDEST PUSH2 0x5FF PUSH1 0x80 DUP4 ADD DUP5 PUSH2 0x4A2 JUMP JUMPDEST SWAP7 SWAP6 POP POP POP POP POP POP JUMP JUMPDEST PUSH1 0x0 DUP3 DUP3 MSTORE PUSH1 0x20 DUP3 ADD SWAP1 POP SWAP3 SWAP2 POP POP JUMP JUMPDEST PUSH1 0x0 PUSH2 0x625 DUP3 PUSH2 0x67C JUMP JUMPDEST SWAP2 POP PUSH2 0x630 DUP4 PUSH2 0x67C JUMP JUMPDEST SWAP3 POP DUP3 PUSH32 0xFFFFFFFFFFFFFFFFFFFFFFFFFFFFFFFFFFFFFFFFFFFFFFFFFFFFFFFFFFFFFFFF SUB DUP3 GT ISZERO PUSH2 0x665 JUMPI PUSH2 0x664 PUSH2 0x6CF JUMP JUMPDEST JUMPDEST DUP3 DUP3 ADD SWAP1 POP SWAP3 SWAP2 POP POP JUMP JUMPDEST PUSH1 0x0 DUP2 ISZERO ISZERO SWAP1 POP SWAP2 SWAP1 POP JUMP JUMPDEST PUSH1 0x0 DUP2 SWAP1 POP SWAP2 SWAP1 POP JUMP JUMPDEST PUSH1 0x0 PUSH2 0x691 DUP3 PUSH2 0x67C JUMP JUMPDEST SWAP2 POP PUSH32 0xFFFFFFFFFFFFFFFFFFFFFFFFFFFFFFFFFFFFFFFFFFFFFFFFFFFFFFFFFFFFFFFF DUP3 EQ ISZERO PUSH2 0x6C4 JUMPI PUSH2 0x6C3 PUSH2 0x6CF JUMP JUMPDEST JUMPDEST PUSH1 0x1 DUP3 ADD SWAP1 POP SWAP2 SWAP1 POP JUMP JUMPDEST PUSH32 0x4E487B7100000000000000000000000000000000000000000000000000000000 PUSH1 0x0 MSTORE PUSH1 0x11 PUSH1 0x4 MSTORE PUSH1 0x24 PUSH1 0x0 REVERT JUMPDEST PUSH2 0x707 DUP2 PUSH2 0x670 JUMP JUMPDEST DUP2 EQ PUSH2 0x712 JUMPI PUSH1 0x0 DUP1 REVERT JUMPDEST POP JUMP JUMPDEST PUSH2 0x71E DUP2 PUSH2 0x67C JUMP JUMPDEST DUP2 EQ PUSH2 0x729 JUMPI PUSH1 0x0 DUP1 REVERT JUMPDEST POP JUMP INVALID LOG2 PUSH5 0x6970667358 0x22 SLT KECCAK256 CALLDATALOAD TIMESTAMP DUP2 MUL 0xBC RETURNDATACOPY SWAP16 0x22 PUSH21 0x69D32D779C2BCA64DA468300298F1F24445239E696 TIMESTAMP PC PUSH5 0x736F6C6343 STOP ADDMOD STOP STOP CALLER "},"methodIdentifiers":{"disputeCount()":"a28889e1","disputes(uint256)":"564a565d","getDisputeResult(uint256)":"50de9b40","startDispute(uint256,uint256)":"c02b5068","vote(uint256,bool)":"c9d27afe"}}}}}