{
  "_format": "hh-sol-artifact-1",
  "contractName": "Voting",
  "sourceName": "web3/contracts/Voting.sol",
  "abi": [
    {
      "inputs": [
        {
          "internalType": "uint256",
          "name": "proposalId",
          "type": "uint256"
        }
      ],
      "name": "approveProposal",
      "outputs": [],
      "stateMutability": "nonpayable",
      "type": "function"
    },
    {
      "inputs": [
        {
          "internalType": "string",
          "name": "description",
          "type": "string"
        }
      ],
      "name": "createProposal",
      "outputs": [],
      "stateMutability": "nonpayable",
      "type": "function"
    },
    {
      "inputs": [
        {
          "internalType": "uint256",
          "name": "proposalId",
          "type": "uint256"
        }
      ],
      "name": "getProposal",
      "outputs": [
        {
          "internalType": "string",
          "name": "",
          "type": "string"
        },
        {
          "internalType": "bool",
          "name": "",
          "type": "bool"
        }
      ],
      "stateMutability": "view",
      "type": "function"
    },
    {
      "inputs": [
        {
          "internalType": "address",
          "name": "",
          "type": "address"
        },
        {
          "internalType": "uint256",
          "name": "",
          "type": "uint256"
        }
      ],
      "name": "hasVoted",
      "outputs": [
        {
          "internalType": "bool",
          "name": "",
          "type": "bool"
        }
      ],
      "stateMutability": "view",
      "type": "function"
    },
    {
      "inputs": [
        {
          "internalType": "uint256",
          "name": "",
          "type": "uint256"
        }
      ],
      "name": "proposals",
      "outputs": [
        {
          "internalType": "string",
          "name": "description",
          "type": "string"
        },
        {
          "internalType": "uint256",
          "name": "approveVotes",
          "type": "uint256"
        },
        {
          "internalType": "uint256",
          "name": "disapproveVotes",
          "type": "uint256"
        },
        {
          "internalType": "bool",
          "name": "resolved",
          "type": "bool"
        },
        {
          "internalType": "bool",
          "name": "approved",
          "type": "bool"
        }
      ],
      "stateMutability": "view",
      "type": "function"
    },
    {
      "inputs": [
        {
          "internalType": "uint256",
          "name": "proposalId",
          "type": "uint256"
        }
      ],
      "name": "rejectProposal",
      "outputs": [],
      "stateMutability": "nonpayable",
      "type": "function"
    },
    {
      "inputs": [
        {
          "internalType": "uint256",
          "name": "proposalId",
          "type": "uint256"
        },
        {
          "internalType": "bool",
          "name": "approve",
          "type": "bool"
        }
      ],
      "name": "vote",
      "outputs": [],
      "stateMutability": "nonpayable",
      "type": "function"
    }
  ],
  "bytecode": "0x6080604052348015600f57600080fd5b5061098c8061001f6000396000f3fe608060405234801561001057600080fd5b506004361061007d5760003560e01c806398951b561161005b57806398951b5614610102578063bc28d87814610115578063c7f758a814610128578063c9d27afe1461014957600080fd5b8063013cf08b1461008257806342545825146100af57806349c2a1a6146100ed575b600080fd5b6100956100903660046105da565b61015c565b6040516100a6959493929190610639565b60405180910390f35b6100dd6100bd366004610672565b600160209081526000928352604080842090915290825290205460ff1681565b60405190151581526020016100a6565b6101006100fb3660046106c0565b610232565b005b6101006101103660046105da565b6102e6565b6101006101233660046105da565b61037a565b61013b6101363660046105da565b610408565b6040516100a6929190610779565b61010061015736600461079d565b6104dc565b6000818154811061016c57600080fd5b906000526020600020906004020160009150905080600001805461018f906107d2565b80601f01602080910402602001604051908101604052809291908181526020018280546101bb906107d2565b80156102085780601f106101dd57610100808354040283529160200191610208565b820191906000526020600020905b8154815290600101906020018083116101eb57829003601f168201915b50505050600183015460028401546003909401549293909290915060ff8082169161010090041685565b6040805160a08101825282815260006020820181905291810182905260608101829052608081018290528154600181018355918052805190916004027f290decd9548b62a8d60345a988386fc84ba6bc95484008f6362f93160ef3e5630190819061029d908261085a565b50602082015160018201556040820151600282015560608201516003909101805460809093015115156101000261ff00199215159290921661ffff199093169290921717905550565b60008082815481106102fa576102fa610919565b60009182526020909120600490910201600381015490915060ff16156103675760405162461bcd60e51b815260206004820152601a60248201527f50726f706f73616c20616c7265616479207265736f6c7665642e00000000000060448201526064015b60405180910390fd5b600301805461ffff191661010117905550565b600080828154811061038e5761038e610919565b60009182526020909120600490910201600381015490915060ff16156103f65760405162461bcd60e51b815260206004820152601a60248201527f50726f706f73616c20616c7265616479207265736f6c7665642e000000000000604482015260640161035e565b600301805461ffff1916600117905550565b60606000806000848154811061042057610420610919565b90600052602060002090600402019050806000018160030160019054906101000a900460ff16818054610452906107d2565b80601f016020809104026020016040519081016040528092919081815260200182805461047e906107d2565b80156104cb5780601f106104a0576101008083540402835291602001916104cb565b820191906000526020600020905b8154815290600101906020018083116104ae57829003601f168201915b505050505091509250925050915091565b33600090815260016020908152604080832085845290915290205460ff16156105585760405162461bcd60e51b815260206004820152602860248201527f596f75206861766520616c726561647920766f746564206f6e207468697320706044820152673937b837b9b0b61760c11b606482015260840161035e565b3360009081526001602081815260408084208685529091528220805460ff19169091179055805481908490811061059157610591610919565b9060005260206000209060040201905081156105c3576001810180549060006105b98361092f565b9190505550505050565b6002810180549060006105b98361092f565b505050565b6000602082840312156105ec57600080fd5b5035919050565b6000815180845260005b81811015610619576020818501810151868301820152016105fd565b506000602082860101526020601f19601f83011685010191505092915050565b60a08152600061064c60a08301886105f3565b602083019690965250604081019390935290151560608301521515608090910152919050565b6000806040838503121561068557600080fd5b82356001600160a01b038116811461069c57600080fd5b946020939093013593505050565b634e487b7160e01b600052604160045260246000fd5b6000602082840312156106d257600080fd5b813567ffffffffffffffff8111156106e957600080fd5b8201601f810184136106fa57600080fd5b803567ffffffffffffffff811115610714576107146106aa565b604051601f8201601f19908116603f0116810167ffffffffffffffff81118282101715610743576107436106aa565b60405281815282820160200186101561075b57600080fd5b81602084016020830137600091810160200191909152949350505050565b60408152600061078c60408301856105f3565b905082151560208301529392505050565b600080604083850312156107b057600080fd5b82359150602083013580151581146107c757600080fd5b809150509250929050565b600181811c908216806107e657607f821691505b60208210810361080657634e487b7160e01b600052602260045260246000fd5b50919050565b601f8211156105d557806000526020600020601f840160051c810160208510156108335750805b601f840160051c820191505b81811015610853576000815560010161083f565b5050505050565b815167ffffffffffffffff811115610874576108746106aa565b6108888161088284546107d2565b8461080c565b6020601f8211600181146108bc57600083156108a45750848201515b600019600385901b1c1916600184901b178455610853565b600084815260208120601f198516915b828110156108ec57878501518255602094850194600190920191016108cc565b508482101561090a5786840151600019600387901b60f8161c191681555b50505050600190811b01905550565b634e487b7160e01b600052603260045260246000fd5b60006001820161094f57634e487b7160e01b600052601160045260246000fd5b506001019056fea264697066735822122086e59e4ef913e840c5a08e1a55d5823148bb79dd9cfebee343efcd5dd962beef64736f6c634300081a0033",
  "linkReferences": {},
  "deployedLinkReferences": {}
}