{
  "_format": "hh-sol-artifact-1",
  "contractName": "Voting",
  "sourceName": "web3/contracts/Voting.sol",
  "abi": [
    {
      "inputs": [
        {
          "internalType": "uint256",
          "name": "proposalId",
          "type": "uint256"
        }
      ],
      "name": "approveProposal",
      "outputs": [],
      "stateMutability": "nonpayable",
      "type": "function"
    },
    {
      "inputs": [
        {
          "internalType": "string",
          "name": "description",
          "type": "string"
        }
      ],
      "name": "createProposal",
      "outputs": [],
      "stateMutability": "nonpayable",
      "type": "function"
    },
    {
      "inputs": [
        {
          "internalType": "uint256",
          "name": "proposalId",
          "type": "uint256"
        }
      ],
      "name": "getProposal",
      "outputs": [
        {
          "internalType": "string",
          "name": "",
          "type": "string"
        },
        {
          "internalType": "bool",
          "name": "",
          "type": "bool"
        }
      ],
      "stateMutability": "view",
      "type": "function"
    },
    {
      "inputs": [
        {
          "internalType": "address",
          "name": "",
          "type": "address"
        },
        {
          "internalType": "uint256",
          "name": "",
          "type": "uint256"
        }
      ],
      "name": "hasVoted",
      "outputs": [
        {
          "internalType": "bool",
          "name": "",
          "type": "bool"
        }
      ],
      "stateMutability": "view",
      "type": "function"
    },
    {
      "inputs": [
        {
          "internalType": "uint256",
          "name": "",
          "type": "uint256"
        }
      ],
      "name": "proposals",
      "outputs": [
        {
          "internalType": "string",
          "name": "description",
          "type": "string"
        },
        {
          "internalType": "uint256",
          "name": "approveVotes",
          "type": "uint256"
        },
        {
          "internalType": "uint256",
          "name": "disapproveVotes",
          "type": "uint256"
        },
        {
          "internalType": "bool",
          "name": "resolved",
          "type": "bool"
        },
        {
          "internalType": "bool",
          "name": "approved",
          "type": "bool"
        }
      ],
      "stateMutability": "view",
      "type": "function"
    },
    {
      "inputs": [
        {
          "internalType": "uint256",
          "name": "proposalId",
          "type": "uint256"
        }
      ],
      "name": "rejectProposal",
      "outputs": [],
      "stateMutability": "nonpayable",
      "type": "function"
    },
    {
      "inputs": [
        {
          "internalType": "uint256",
          "name": "proposalId",
          "type": "uint256"
        },
        {
          "internalType": "bool",
          "name": "approve",
          "type": "bool"
        }
      ],
      "name": "vote",
      "outputs": [],
      "stateMutability": "nonpayable",
      "type": "function"
    }
  ],
  "bytecode": "0x608060405234801561001057600080fd5b50610e5e806100206000396000f3fe608060405234801561001057600080fd5b506004361061007d5760003560e01c806398951b561161005b57806398951b5614610102578063bc28d8781461011e578063c7f758a81461013a578063c9d27afe1461016b5761007d565b8063013cf08b1461008257806342545825146100b657806349c2a1a6146100e6575b600080fd5b61009c6004803603810190610097919061097c565b610187565b6040516100ad959493929190610b29565b60405180910390f35b6100d060048036038101906100cb91906108ff565b61026f565b6040516100dd9190610ade565b60405180910390f35b61010060048036038101906100fb919061093b565b61029e565b005b61011c6004803603810190610117919061097c565b61036e565b005b6101386004803603810190610133919061097c565b610449565b005b610154600480360381019061014f919061097c565b610524565b604051610162929190610af9565b60405180910390f35b610185600480360381019061018091906109a5565b61061f565b005b6000818154811061019757600080fd5b90600052602060002090600402016000915090508060000180546101ba90610cca565b80601f01602080910402602001604051908101604052809291908181526020018280546101e690610cca565b80156102335780601f1061020857610100808354040283529160200191610233565b820191906000526020600020905b81548152906001019060200180831161021657829003601f168201915b5050505050908060010154908060020154908060030160009054906101000a900460ff16908060030160019054906101000a900460ff16905085565b60016020528160005260406000206020528060005260406000206000915091509054906101000a900460ff1681565b60006040518060a00160405280838152602001600081526020016000815260200160001515815260200160001515815250908060018154018082558091505060019003906000526020600020906004020160009091909190915060008201518160000190805190602001906103149291906107b5565b50602082015181600101556040820151816002015560608201518160030160006101000a81548160ff02191690831515021790555060808201518160030160016101000a81548160ff021916908315150217905550505050565b60008082815481106103a9577f4e487b7100000000000000000000000000000000000000000000000000000000600052603260045260246000fd5b906000526020600020906004020190508060030160009054906101000a900460ff161561040b576040517f08c379a000000000000000000000000000000000000000000000000000000000815260040161040290610b83565b60405180910390fd5b60018160030160006101000a81548160ff02191690831515021790555060018160030160016101000a81548160ff0219169083151502179055505050565b6000808281548110610484577f4e487b7100000000000000000000000000000000000000000000000000000000600052603260045260246000fd5b906000526020600020906004020190508060030160009054906101000a900460ff16156104e6576040517f08c379a00000000000000000000000000000000000000000000000000000000081526004016104dd90610b83565b60405180910390fd5b60018160030160006101000a81548160ff02191690831515021790555060008160030160016101000a81548160ff0219169083151502179055505050565b606060008060008481548110610563577f4e487b7100000000000000000000000000000000000000000000000000000000600052603260045260246000fd5b90600052602060002090600402019050806000018160030160019054906101000a900460ff1681805461059590610cca565b80601f01602080910402602001604051908101604052809291908181526020018280546105c190610cca565b801561060e5780601f106105e35761010080835404028352916020019161060e565b820191906000526020600020905b8154815290600101906020018083116105f157829003601f168201915b505050505091509250925050915091565b600160003373ffffffffffffffffffffffffffffffffffffffff1673ffffffffffffffffffffffffffffffffffffffff168152602001908152602001600020600083815260200190815260200160002060009054906101000a900460ff16156106bd576040517f08c379a00000000000000000000000000000000000000000000000000000000081526004016106b490610ba3565b60405180910390fd5b60018060003373ffffffffffffffffffffffffffffffffffffffff1673ffffffffffffffffffffffffffffffffffffffff168152602001908152602001600020600084815260200190815260200160002060006101000a81548160ff0219169083151502179055506000808381548110610760577f4e487b7100000000000000000000000000000000000000000000000000000000600052603260045260246000fd5b9060005260206000209060040201905081156107955780600101600081548092919061078b90610cfc565b91905055506107b0565b8060020160008154809291906107aa90610cfc565b91905055505b505050565b8280546107c190610cca565b90600052602060002090601f0160209004810192826107e3576000855561082a565b82601f106107fc57805160ff191683800117855561082a565b8280016001018555821561082a579182015b8281111561082957825182559160200191906001019061080e565b5b509050610837919061083b565b5090565b5b8082111561085457600081600090555060010161083c565b5090565b600061086b61086684610bf4565b610bc3565b90508281526020810184848401111561088357600080fd5b61088e848285610c88565b509392505050565b6000813590506108a581610de3565b92915050565b6000813590506108ba81610dfa565b92915050565b600082601f8301126108d157600080fd5b81356108e1848260208601610858565b91505092915050565b6000813590506108f981610e11565b92915050565b6000806040838503121561091257600080fd5b600061092085828601610896565b9250506020610931858286016108ea565b9150509250929050565b60006020828403121561094d57600080fd5b600082013567ffffffffffffffff81111561096757600080fd5b610973848285016108c0565b91505092915050565b60006020828403121561098e57600080fd5b600061099c848285016108ea565b91505092915050565b600080604083850312156109b857600080fd5b60006109c6858286016108ea565b92505060206109d7858286016108ab565b9150509250929050565b6109ea81610c52565b82525050565b60006109fb82610c24565b610a058185610c2f565b9350610a15818560208601610c97565b610a1e81610dd2565b840191505092915050565b6000610a36601a83610c2f565b91507f50726f706f73616c20616c7265616479207265736f6c7665642e0000000000006000830152602082019050919050565b6000610a76602883610c2f565b91507f596f75206861766520616c726561647920766f746564206f6e2074686973207060008301527f726f706f73616c2e0000000000000000000000000000000000000000000000006020830152604082019050919050565b610ad881610c7e565b82525050565b6000602082019050610af360008301846109e1565b92915050565b60006040820190508181036000830152610b1381856109f0565b9050610b2260208301846109e1565b9392505050565b600060a0820190508181036000830152610b4381886109f0565b9050610b526020830187610acf565b610b5f6040830186610acf565b610b6c60608301856109e1565b610b7960808301846109e1565b9695505050505050565b60006020820190508181036000830152610b9c81610a29565b9050919050565b60006020820190508181036000830152610bbc81610a69565b9050919050565b6000604051905081810181811067ffffffffffffffff82111715610bea57610be9610da3565b5b8060405250919050565b600067ffffffffffffffff821115610c0f57610c0e610da3565b5b601f19601f8301169050602081019050919050565b600081519050919050565b600082825260208201905092915050565b6000610c4b82610c5e565b9050919050565b60008115159050919050565b600073ffffffffffffffffffffffffffffffffffffffff82169050919050565b6000819050919050565b82818337600083830152505050565b60005b83811015610cb5578082015181840152602081019050610c9a565b83811115610cc4576000848401525b50505050565b60006002820490506001821680610ce257607f821691505b60208210811415610cf657610cf5610d74565b5b50919050565b6000610d0782610c7e565b91507fffffffffffffffffffffffffffffffffffffffffffffffffffffffffffffffff821415610d3a57610d39610d45565b5b600182019050919050565b7f4e487b7100000000000000000000000000000000000000000000000000000000600052601160045260246000fd5b7f4e487b7100000000000000000000000000000000000000000000000000000000600052602260045260246000fd5b7f4e487b7100000000000000000000000000000000000000000000000000000000600052604160045260246000fd5b6000601f19601f8301169050919050565b610dec81610c40565b8114610df757600080fd5b50565b610e0381610c52565b8114610e0e57600080fd5b50565b610e1a81610c7e565b8114610e2557600080fd5b5056fea26469706673582212207da8c15a95a00b94f1f05fcdbe27307d3fdcf06f24b123b164d730332ba3372064736f6c63430008000033",
  "linkReferences": {},
  "deployedLinkReferences": {}
}