{
  "_format": "hh-sol-artifact-1",
  "contractName": "SimpleReputationSystem",
  "sourceName": "web3/contracts/SimpleReputationSystem.sol",
  "abi": [
    {
      "inputs": [],
      "stateMutability": "nonpayable",
      "type": "constructor"
    },
    {
      "anonymous": false,
      "inputs": [
        {
          "indexed": true,
          "internalType": "address",
          "name": "jurorAddress",
          "type": "address"
        },
        {
          "indexed": false,
          "internalType": "uint256",
          "name": "initialReputation",
          "type": "uint256"
        }
      ],
      "name": "JurorInitialized",
      "type": "event"
    },
    {
      "anonymous": false,
      "inputs": [
        {
          "indexed": true,
          "internalType": "address",
          "name": "jurorAddress",
          "type": "address"
        },
        {
          "indexed": false,
          "internalType": "uint256",
          "name": "successCount",
          "type": "uint256"
        },
        {
          "indexed": false,
          "internalType": "uint256",
          "name": "totalDisputes",
          "type": "uint256"
        },
        {
          "indexed": false,
          "internalType": "uint256",
          "name": "newReputation",
          "type": "uint256"
        }
      ],
      "name": "MetricsUpdated",
      "type": "event"
    },
    {
      "inputs": [
        {
          "internalType": "address",
          "name": "_jurorAddress",
          "type": "address"
        }
      ],
      "name": "calculateReputation",
      "outputs": [
        {
          "internalType": "uint256",
          "name": "",
          "type": "uint256"
        }
      ],
      "stateMutability": "view",
      "type": "function"
    },
    {
      "inputs": [
        {
          "internalType": "address",
          "name": "_jurorAddress",
          "type": "address"
        }
      ],
      "name": "getJurorData",
      "outputs": [
        {
          "components": [
            {
              "internalType": "uint256",
              "name": "reputation",
              "type": "uint256"
            },
            {
              "internalType": "uint256",
              "name": "successCount",
              "type": "uint256"
            },
            {
              "internalType": "uint256",
              "name": "totalDisputes",
              "type": "uint256"
            },
            {
              "internalType": "bool",
              "name": "initialized",
              "type": "bool"
            }
          ],
          "internalType": "struct SimpleReputationSystem.Juror",
          "name": "",
          "type": "tuple"
        }
      ],
      "stateMutability": "view",
      "type": "function"
    },
    {
      "inputs": [
        {
          "internalType": "address",
          "name": "_jurorAddress",
          "type": "address"
        }
      ],
      "name": "initializeJuror",
      "outputs": [],
      "stateMutability": "nonpayable",
      "type": "function"
    },
    {
      "inputs": [
        {
          "internalType": "address",
          "name": "",
          "type": "address"
        }
      ],
      "name": "jurors",
      "outputs": [
        {
          "internalType": "uint256",
          "name": "reputation",
          "type": "uint256"
        },
        {
          "internalType": "uint256",
          "name": "successCount",
          "type": "uint256"
        },
        {
          "internalType": "uint256",
          "name": "totalDisputes",
          "type": "uint256"
        },
        {
          "internalType": "bool",
          "name": "initialized",
          "type": "bool"
        }
      ],
      "stateMutability": "view",
      "type": "function"
    },
    {
      "inputs": [
        {
          "internalType": "address",
          "name": "_jurorAddress",
          "type": "address"
        },
        {
          "internalType": "uint256",
          "name": "_successCount",
          "type": "uint256"
        },
        {
          "internalType": "uint256",
          "name": "_totalDisputes",
          "type": "uint256"
        }
      ],
      "name": "updateMetrics",
      "outputs": [],
      "stateMutability": "nonpayable",
      "type": "function"
    }
  ],
  "bytecode": "0x6080604052348015600f57600080fd5b506105208061001f6000396000f3fe608060405234801561001057600080fd5b50600436106100575760003560e01c806327c06fd51461005c578063861ac5f4146100825780639c4abfed14610097578063dca5f6b0146100df578063f247668814610139575b600080fd5b61006f61006a366004610448565b61014c565b6040519081526020015b60405180910390f35b61009561009036600461046a565b6101cf565b005b6100aa6100a5366004610448565b6102aa565b604051610079919081518152602080830151908201526040808301519082015260609182015115159181019190915260800190565b6101176100ed366004610448565b60006020819052908152604090208054600182015460028301546003909301549192909160ff1684565b6040805194855260208501939093529183015215156060820152608001610079565b610095610147366004610448565b610328565b6001600160a01b03811660009081526020818152604080832081516080810183528154815260018201549381019390935260028101549183018290526003015460ff161515606083015282036101a55750600092915050565b60008160400151826020015160646101bd919061049d565b6101c791906104c8565b949350505050565b6001600160a01b0383166000908152602081905260409020600381015460ff166102385760405162461bcd60e51b8152602060048201526015602482015274129d5c9bdc881b9bdd081a5b9a5d1a585b1a5e9959605a1b60448201526064015b60405180910390fd5b600181018390556002810182905560006102518561014c565b80835560408051868152602081018690529081018290529091506001600160a01b038616907fd0f1f29eac89d6c0f153049ba5b26856c5d353d986a006647cff7ecd98c85a409060600160405180910390a25050505050565b6102d760405180608001604052806000815260200160008152602001600081526020016000151581525090565b506001600160a01b03166000908152602081815260409182902082516080810184528154815260018201549281019290925260028101549282019290925260039091015460ff161515606082015290565b6001600160a01b03811660009081526020819052604090206003015460ff16156103945760405162461bcd60e51b815260206004820152601960248201527f4a75726f7220616c726561647920696e697469616c697a656400000000000000604482015260640161022f565b60408051608081018252600080825260208083018281528385018381526001606086018181526001600160a01b0389168087528686528887209751885593519187019190915590516002860155516003909401805460ff191694151594909417909355925190815290917f068a8d61430fd8b4cc9595f5da888031d65f2d61198add24752ecdbdc4cee317910160405180910390a250565b80356001600160a01b038116811461044357600080fd5b919050565b60006020828403121561045a57600080fd5b6104638261042c565b9392505050565b60008060006060848603121561047f57600080fd5b6104888461042c565b95602085013595506040909401359392505050565b80820281158282048414176104c257634e487b7160e01b600052601160045260246000fd5b92915050565b6000826104e557634e487b7160e01b600052601260045260246000fd5b50049056fea2646970667358221220ef5b26b9aa99aa826af6b95aba881c72cbddeb1466363ce1c369eecb9db0c3ef64736f6c634300081a0033",
  "linkReferences": {},
  "deployedLinkReferences": {}
}