{
  "_format": "hh-sol-artifact-1",
  "contractName": "DaoMain",
  "sourceName": "web3/contracts/daoMain.sol",
  "abi": [
    {
      "inputs": [
        {
          "internalType": "address",
          "name": "_disputeResolution",
          "type": "address"
        },
        {
          "internalType": "address",
          "name": "_voting",
          "type": "address"
        }
      ],
      "stateMutability": "nonpayable",
      "type": "constructor"
    },
    {
      "inputs": [
        {
          "internalType": "string",
          "name": "description",
          "type": "string"
        }
      ],
      "name": "createProposal",
      "outputs": [],
      "stateMutability": "nonpayable",
      "type": "function"
    },
    {
      "inputs": [],
      "name": "disputeResolution",
      "outputs": [
        {
          "internalType": "contract DisputeResolution",
          "name": "",
          "type": "address"
        }
      ],
      "stateMutability": "view",
      "type": "function"
    },
    {
      "inputs": [],
      "name": "owner",
      "outputs": [
        {
          "internalType": "address",
          "name": "",
          "type": "address"
        }
      ],
      "stateMutability": "view",
      "type": "function"
    },
    {
      "inputs": [
        {
          "internalType": "uint256",
          "name": "proposalId",
          "type": "uint256"
        }
      ],
      "name": "resolveDispute",
      "outputs": [],
      "stateMutability": "nonpayable",
      "type": "function"
    },
    {
      "inputs": [
        {
          "internalType": "uint256",
          "name": "proposalId",
          "type": "uint256"
        },
        {
          "internalType": "bool",
          "name": "approve",
          "type": "bool"
        }
      ],
      "name": "voteOnProposal",
      "outputs": [],
      "stateMutability": "nonpayable",
      "type": "function"
    },
    {
      "inputs": [],
      "name": "voting",
      "outputs": [
        {
          "internalType": "contract Voting",
          "name": "",
          "type": "address"
        }
      ],
      "stateMutability": "view",
      "type": "function"
    }
  ],
  "bytecode": "0x608060405234801561001057600080fd5b50604051610bb7380380610bb783398181016040528101906100329190610110565b336000806101000a81548173ffffffffffffffffffffffffffffffffffffffff021916908373ffffffffffffffffffffffffffffffffffffffff16021790555081600160006101000a81548173ffffffffffffffffffffffffffffffffffffffff021916908373ffffffffffffffffffffffffffffffffffffffff16021790555080600260006101000a81548173ffffffffffffffffffffffffffffffffffffffff021916908373ffffffffffffffffffffffffffffffffffffffff1602179055505050610195565b60008151905061010a8161017e565b92915050565b6000806040838503121561012357600080fd5b6000610131858286016100fb565b9250506020610142858286016100fb565b9150509250929050565b60006101578261015e565b9050919050565b600073ffffffffffffffffffffffffffffffffffffffff82169050919050565b6101878161014c565b811461019257600080fd5b50565b610a13806101a46000396000f3fe608060405234801561001057600080fd5b50600436106100625760003560e01c80631614665c1461006757806349c2a1a6146100835780638da5cb5b1461009f578063be9157cf146100bd578063c2b7b868146100db578063fce1ccca146100f7575b600080fd5b610081600480360381019061007c9190610649565b610115565b005b61009d600480360381019061009891906105df565b6101a8565b005b6100a76102c6565b6040516100b49190610749565b60405180910390f35b6100c56102ea565b6040516100d29190610764565b60405180910390f35b6100f560048036038101906100f09190610620565b610310565b005b6100ff6104e9565b60405161010c919061077f565b60405180910390f35b600260009054906101000a900473ffffffffffffffffffffffffffffffffffffffff1673ffffffffffffffffffffffffffffffffffffffff1663c9d27afe83836040518363ffffffff1660e01b81526004016101729291906107f7565b600060405180830381600087803b15801561018c57600080fd5b505af11580156101a0573d6000803e3d6000fd5b505050505050565b60008054906101000a900473ffffffffffffffffffffffffffffffffffffffff1673ffffffffffffffffffffffffffffffffffffffff163373ffffffffffffffffffffffffffffffffffffffff1614610236576040517f08c379a000000000000000000000000000000000000000000000000000000000815260040161022d906107bc565b60405180910390fd5b600260009054906101000a900473ffffffffffffffffffffffffffffffffffffffff1673ffffffffffffffffffffffffffffffffffffffff166349c2a1a6826040518263ffffffff1660e01b8152600401610291919061079a565b600060405180830381600087803b1580156102ab57600080fd5b505af11580156102bf573d6000803e3d6000fd5b5050505050565b60008054906101000a900473ffffffffffffffffffffffffffffffffffffffff1681565b600160009054906101000a900473ffffffffffffffffffffffffffffffffffffffff1681565b6000600160009054906101000a900473ffffffffffffffffffffffffffffffffffffffff1673ffffffffffffffffffffffffffffffffffffffff166350de9b40836040518263ffffffff1660e01b815260040161036d91906107dc565b60206040518083038186803b15801561038557600080fd5b505afa158015610399573d6000803e3d6000fd5b505050506040513d601f19601f820116820180604052508101906103bd91906105b6565b9050801561045757600260009054906101000a900473ffffffffffffffffffffffffffffffffffffffff1673ffffffffffffffffffffffffffffffffffffffff166398951b56836040518263ffffffff1660e01b815260040161042091906107dc565b600060405180830381600087803b15801561043a57600080fd5b505af115801561044e573d6000803e3d6000fd5b505050506104e5565b600260009054906101000a900473ffffffffffffffffffffffffffffffffffffffff1673ffffffffffffffffffffffffffffffffffffffff1663bc28d878836040518263ffffffff1660e01b81526004016104b291906107dc565b600060405180830381600087803b1580156104cc57600080fd5b505af11580156104e0573d6000803e3d6000fd5b505050505b5050565b600260009054906101000a900473ffffffffffffffffffffffffffffffffffffffff1681565b600061052261051d84610851565b610820565b90508281526020810184848401111561053a57600080fd5b61054584828561092d565b509392505050565b60008135905061055c816109af565b92915050565b600081519050610571816109af565b92915050565b600082601f83011261058857600080fd5b813561059884826020860161050f565b91505092915050565b6000813590506105b0816109c6565b92915050565b6000602082840312156105c857600080fd5b60006105d684828501610562565b91505092915050565b6000602082840312156105f157600080fd5b600082013567ffffffffffffffff81111561060b57600080fd5b61061784828501610577565b91505092915050565b60006020828403121561063257600080fd5b6000610640848285016105a1565b91505092915050565b6000806040838503121561065c57600080fd5b600061066a858286016105a1565b925050602061067b8582860161054d565b9150509250929050565b61068e8161089d565b82525050565b61069d816108af565b82525050565b6106ac816108e5565b82525050565b6106bb81610909565b82525050565b60006106cc82610881565b6106d6818561088c565b93506106e681856020860161093c565b6106ef8161099e565b840191505092915050565b600061070760208361088c565b91507f4f6e6c79206f776e65722063616e206372656174652070726f706f73616c732e6000830152602082019050919050565b610743816108db565b82525050565b600060208201905061075e6000830184610685565b92915050565b600060208201905061077960008301846106a3565b92915050565b600060208201905061079460008301846106b2565b92915050565b600060208201905081810360008301526107b481846106c1565b905092915050565b600060208201905081810360008301526107d5816106fa565b9050919050565b60006020820190506107f1600083018461073a565b92915050565b600060408201905061080c600083018561073a565b6108196020830184610694565b9392505050565b6000604051905081810181811067ffffffffffffffff821117156108475761084661096f565b5b8060405250919050565b600067ffffffffffffffff82111561086c5761086b61096f565b5b601f19601f8301169050602081019050919050565b600081519050919050565b600082825260208201905092915050565b60006108a8826108bb565b9050919050565b60008115159050919050565b600073ffffffffffffffffffffffffffffffffffffffff82169050919050565b6000819050919050565b60006108f0826108f7565b9050919050565b6000610902826108bb565b9050919050565b60006109148261091b565b9050919050565b6000610926826108bb565b9050919050565b82818337600083830152505050565b60005b8381101561095a57808201518184015260208101905061093f565b83811115610969576000848401525b50505050565b7f4e487b7100000000000000000000000000000000000000000000000000000000600052604160045260246000fd5b6000601f19601f8301169050919050565b6109b8816108af565b81146109c357600080fd5b50565b6109cf816108db565b81146109da57600080fd5b5056fea264697066735822122028ee466d675da42eda04a7bc5f99c55c5131ee062144182d86c3cc7dd66d884f64736f6c63430008000033",
  "linkReferences": {},
  "deployedLinkReferences": {}
}