{
  "_format": "hh-sol-artifact-1",
  "contractName": "DaoMain",
  "sourceName": "web3/contracts/daoMain.sol",
  "abi": [
    {
      "inputs": [
        {
          "internalType": "address",
          "name": "_disputeResolution",
          "type": "address"
        },
        {
          "internalType": "address",
          "name": "_voting",
          "type": "address"
        },
        {
          "internalType": "address",
          "name": "_reputationSystem",
          "type": "address"
        }
      ],
      "stateMutability": "nonpayable",
      "type": "constructor"
    },
    {
      "inputs": [
        {
          "internalType": "string",
          "name": "description",
          "type": "string"
        }
      ],
      "name": "createProposal",
      "outputs": [],
      "stateMutability": "nonpayable",
      "type": "function"
    },
    {
      "inputs": [],
      "name": "disputeResolution",
      "outputs": [
        {
          "internalType": "contract DisputeResolution",
          "name": "",
          "type": "address"
        }
      ],
      "stateMutability": "view",
      "type": "function"
    },
    {
      "inputs": [],
      "name": "owner",
      "outputs": [
        {
          "internalType": "address",
          "name": "",
          "type": "address"
        }
      ],
      "stateMutability": "view",
      "type": "function"
    },
    {
      "inputs": [],
      "name": "reputationSystem",
      "outputs": [
        {
          "internalType": "contract SimpleReputationSystem",
          "name": "",
          "type": "address"
        }
      ],
      "stateMutability": "view",
      "type": "function"
    },
    {
      "inputs": [
        {
          "internalType": "uint256",
          "name": "proposalId",
          "type": "uint256"
        }
      ],
      "name": "resolveDispute",
      "outputs": [],
      "stateMutability": "nonpayable",
      "type": "function"
    },
    {
      "inputs": [
        {
          "internalType": "uint256",
          "name": "proposalId",
          "type": "uint256"
        },
        {
          "internalType": "bool",
          "name": "approve",
          "type": "bool"
        }
      ],
      "name": "voteOnProposal",
      "outputs": [],
      "stateMutability": "nonpayable",
      "type": "function"
    },
    {
      "inputs": [],
      "name": "voting",
      "outputs": [
        {
          "internalType": "contract Voting",
          "name": "",
          "type": "address"
        }
      ],
      "stateMutability": "view",
      "type": "function"
    }
  ],
  "bytecode": "0x6080604052348015600f57600080fd5b50604051610aa3380380610aa3833981016040819052602c916093565b600080546001600160a01b03199081163317909155600180546001600160a01b0395861690831617905560028054938516938216939093179092556003805491909316911617905560cf565b80516001600160a01b0381168114608e57600080fd5b919050565b60008060006060848603121560a757600080fd5b60ae846078565b925060ba602085016078565b915060c6604085016078565b90509250925092565b6109c5806100de6000396000f3fe608060405234801561001057600080fd5b506004361061007d5760003560e01c80638da5cb5b1161005b5780638da5cb5b146100d9578063be9157cf146100ec578063c2b7b868146100ff578063fce1ccca1461011257600080fd5b80631614665c1461008257806349c2a1a6146100975780636587eda1146100aa575b600080fd5b6100956100903660046106ae565b610125565b005b6100956100a5366004610725565b61018f565b6003546100bd906001600160a01b031681565b6040516001600160a01b03909116815260200160405180910390f35b6000546100bd906001600160a01b031681565b6001546100bd906001600160a01b031681565b61009561010d3660046107bf565b610252565b6002546100bd906001600160a01b031681565b6002546040516364e93d7f60e11b81526004810184905282151560248201526001600160a01b039091169063c9d27afe90604401600060405180830381600087803b15801561017357600080fd5b505af1158015610187573d6000803e3d6000fd5b505050505050565b6000546001600160a01b031633146101ed5760405162461bcd60e51b815260206004820181905260248201527f4f6e6c79206f776e65722063616e206372656174652070726f706f73616c732e604482015260640160405180910390fd5b6002546040516324e150d360e11b81526001600160a01b03909116906349c2a1a69061021d9084906004016107d8565b600060405180830381600087803b15801561023757600080fd5b505af115801561024b573d6000803e3d6000fd5b5050505050565b6001546040516301437a6d60e61b8152600481018390526000916001600160a01b0316906350de9b4090602401602060405180830381865afa15801561029c573d6000803e3d6000fd5b505050506040513d601f19601f820116820180604052508101906102c09190610826565b600154604051636d8acf4560e01b8152600481018590529192506000916001600160a01b0390911690636d8acf4590602401600060405180830381865afa15801561030f573d6000803e3d6000fd5b505050506040513d6000823e601f3d908101601f19168201604052610337919081019061084a565b905060005b815181101561060157600080600080600360009054906101000a90046001600160a01b03166001600160a01b031663dca5f6b08787815181106103815761038161090f565b60200260200101516040518263ffffffff1660e01b81526004016103b491906001600160a01b0391909116815260200190565b608060405180830381865afa1580156103d1573d6000803e3d6000fd5b505050506040513d601f19601f820116820180604052508101906103f59190610925565b9350935093509350806104915760035486516001600160a01b039091169063f24766889088908890811061042b5761042b61090f565b60200260200101516040518263ffffffff1660e01b815260040161045e91906001600160a01b0391909116815260200190565b600060405180830381600087803b15801561047857600080fd5b505af115801561048c573d6000803e3d6000fd5b505050505b861561054b5760035486516001600160a01b039091169063861ac5f4908890889081106104c0576104c061090f565b60200260200101518560016104d59190610968565b6104e0866001610968565b6040516001600160e01b031960e086901b1681526001600160a01b03909316600484015260248301919091526044820152606401600060405180830381600087803b15801561052e57600080fd5b505af1158015610542573d6000803e3d6000fd5b505050506105f1565b60035486516001600160a01b039091169063861ac5f4908890889081106105745761057461090f565b60200260200101518585600161058a9190610968565b6040516001600160e01b031960e086901b1681526001600160a01b03909316600484015260248301919091526044820152606401600060405180830381600087803b1580156105d857600080fd5b505af11580156105ec573d6000803e3d6000fd5b505050505b50506001909201915061033c9050565b50811561066c57600254604051634c4a8dab60e11b8152600481018590526001600160a01b03909116906398951b56906024015b600060405180830381600087803b15801561064f57600080fd5b505af1158015610663573d6000803e3d6000fd5b50505050505050565b6002546040516317851b0f60e31b8152600481018590526001600160a01b039091169063bc28d87890602401610635565b80151581146106ab57600080fd5b50565b600080604083850312156106c157600080fd5b8235915060208301356106d38161069d565b809150509250929050565b634e487b7160e01b600052604160045260246000fd5b604051601f8201601f1916810167ffffffffffffffff8111828210171561071d5761071d6106de565b604052919050565b60006020828403121561073757600080fd5b813567ffffffffffffffff81111561074e57600080fd5b8201601f8101841361075f57600080fd5b803567ffffffffffffffff811115610779576107796106de565b61078c601f8201601f19166020016106f4565b8181528560208385010111156107a157600080fd5b81602084016020830137600091810160200191909152949350505050565b6000602082840312156107d157600080fd5b5035919050565b602081526000825180602084015260005b8181101561080657602081860181015160408684010152016107e9565b506000604082850101526040601f19601f83011684010191505092915050565b60006020828403121561083857600080fd5b81516108438161069d565b9392505050565b60006020828403121561085c57600080fd5b815167ffffffffffffffff81111561087357600080fd5b8201601f8101841361088457600080fd5b805167ffffffffffffffff81111561089e5761089e6106de565b8060051b6108ae602082016106f4565b918252602081840181019290810190878411156108ca57600080fd5b6020850194505b8385101561090457845192506001600160a01b03831683146108f257600080fd5b828252602094850194909101906108d1565b979650505050505050565b634e487b7160e01b600052603260045260246000fd5b6000806000806080858703121561093b57600080fd5b8451602086015160408701516060880151929650909450925061095d8161069d565b939692955090935050565b8082018082111561098957634e487b7160e01b600052601160045260246000fd5b9291505056fea2646970667358221220456d1cdf77d8ad87fd61b09945de481f96e3c03f5e1a14c5984d0f1c57d060b064736f6c634300081a0033",
  "linkReferences": {},
  "deployedLinkReferences": {}
}