{
  "_format": "hh-sol-artifact-1",
  "contractName": "DisputeResolution",
  "sourceName": "web3/contracts/DisputeResolution.sol",
  "abi": [
    {
      "inputs": [
        {
          "internalType": "uint256",
          "name": "proposalId",
          "type": "uint256"
        },
        {
          "internalType": "address[]",
          "name": "jurors",
          "type": "address[]"
        }
      ],
      "name": "createDispute",
      "outputs": [],
      "stateMutability": "nonpayable",
      "type": "function"
    },
    {
      "inputs": [
        {
          "internalType": "uint256",
          "name": "",
          "type": "uint256"
        }
      ],
      "name": "disputes",
      "outputs": [
        {
          "internalType": "bool",
          "name": "resolved",
          "type": "bool"
        },
        {
          "internalType": "bool",
          "name": "result",
          "type": "bool"
        }
      ],
      "stateMutability": "view",
      "type": "function"
    },
    {
      "inputs": [
        {
          "internalType": "uint256",
          "name": "proposalId",
          "type": "uint256"
        }
      ],
      "name": "getDisputeResult",
      "outputs": [
        {
          "internalType": "bool",
          "name": "",
          "type": "bool"
        }
      ],
      "stateMutability": "view",
      "type": "function"
    },
    {
      "inputs": [
        {
          "internalType": "uint256",
          "name": "proposalId",
          "type": "uint256"
        }
      ],
      "name": "getJurors",
      "outputs": [
        {
          "internalType": "address[]",
          "name": "",
          "type": "address[]"
        }
      ],
      "stateMutability": "view",
      "type": "function"
    },
    {
      "inputs": [
        {
          "internalType": "uint256",
          "name": "proposalId",
          "type": "uint256"
        },
        {
          "internalType": "bool",
          "name": "_result",
          "type": "bool"
        }
      ],
      "name": "resolveDispute",
      "outputs": [],
      "stateMutability": "nonpayable",
      "type": "function"
    }
  ],
  "bytecode": "0x6080604052348015600f57600080fd5b5061067f8061001f6000396000f3fe608060405234801561001057600080fd5b50600436106100575760003560e01c806328e8aece1461005c57806334b25ee21461007157806350de9b4014610084578063564a565d146100ac5780636d8acf45146100f2575b600080fd5b61006f61006a36600461049c565b610112565b005b61006f61007f366004610578565b6101f6565b6100976100923660046105ad565b6102b0565b60405190151581526020015b60405180910390f35b6100db6100ba3660046105ad565b60006020819052908152604090206001015460ff8082169161010090041682565b6040805192151583529015156020830152016100a3565b6101056101003660046105ad565b61035a565b6040516100a391906105c6565b600082815260208190526040902054156101855760405162461bcd60e51b815260206004820152602960248201527f4469737075746520616c72656164792065786973747320666f72207468697320604482015268383937b837b9b0b61760b91b60648201526084015b60405180910390fd5b604080516060810182528281526000602080830182905282840182905285825281815292902081518051929391926101c092849201906103f0565b5060208201516001909101805460409093015115156101000261ff00199215159290921661ffff19909316929092171790555050565b6000828152602081905260409020546102215760405162461bcd60e51b815260040161017c90610612565b60008281526020819052604090206001015460ff16156102835760405162461bcd60e51b815260206004820152601960248201527f4469737075746520616c7265616479207265736f6c7665642e00000000000000604482015260640161017c565b600091825260208290526040909120600190810180549215156101000261ffff1990931692909217179055565b6000818152602081905260408120546102db5760405162461bcd60e51b815260040161017c90610612565b60008281526020819052604090206001015460ff1661033c5760405162461bcd60e51b815260206004820152601960248201527f44697370757465206e6f7420796574207265736f6c7665642e00000000000000604482015260640161017c565b50600090815260208190526040902060010154610100900460ff1690565b6000818152602081905260409020546060906103885760405162461bcd60e51b815260040161017c90610612565b60008281526020818152604091829020805483518184028101840190945280845290918301828280156103e457602002820191906000526020600020905b81546001600160a01b031681526001909101906020018083116103c6575b50505050509050919050565b828054828255906000526020600020908101928215610445579160200282015b8281111561044557825182546001600160a01b0319166001600160a01b03909116178255602090920191600190910190610410565b50610451929150610455565b5090565b5b808211156104515760008155600101610456565b634e487b7160e01b600052604160045260246000fd5b80356001600160a01b038116811461049757600080fd5b919050565b600080604083850312156104af57600080fd5b82359150602083013567ffffffffffffffff8111156104cd57600080fd5b8301601f810185136104de57600080fd5b803567ffffffffffffffff8111156104f8576104f861046a565b8060051b604051601f19603f830116810181811067ffffffffffffffff821117156105255761052561046a565b60405291825260208184018101929081018884111561054357600080fd5b6020850194505b838510156105695761055b85610480565b81526020948501940161054a565b50809450505050509250929050565b6000806040838503121561058b57600080fd5b82359150602083013580151581146105a257600080fd5b809150509250929050565b6000602082840312156105bf57600080fd5b5035919050565b602080825282518282018190526000918401906040840190835b818110156106075783516001600160a01b03168352602093840193909201916001016105e0565b509095945050505050565b60208082526017908201527f4469737075746520646f6573206e6f742065786973742e00000000000000000060408201526060019056fea264697066735822122025a73199095732300e417c9bfdd47c02f0657e5293f61d28b72678e1e3f52df164736f6c634300081a0033",
  "linkReferences": {},
  "deployedLinkReferences": {}
}