{
  "_format": "hh-sol-artifact-1",
  "contractName": "DisputeResolution",
  "sourceName": "web3/contracts/DisputeResolution.sol",
  "abi": [
    {
      "inputs": [],
      "stateMutability": "nonpayable",
      "type": "constructor"
    },
    {
      "inputs": [],
      "name": "disputeCount",
      "outputs": [
        {
          "internalType": "uint256",
          "name": "",
          "type": "uint256"
        }
      ],
      "stateMutability": "view",
      "type": "function"
    },
    {
      "inputs": [
        {
          "internalType": "uint256",
          "name": "",
          "type": "uint256"
        }
      ],
      "name": "disputes",
      "outputs": [
        {
          "internalType": "uint256",
          "name": "approveVotes",
          "type": "uint256"
        },
        {
          "internalType": "uint256",
          "name": "disapproveVotes",
          "type": "uint256"
        },
        {
          "internalType": "uint256",
          "name": "totalJurors",
          "type": "uint256"
        },
        {
          "internalType": "bool",
          "name": "disputeResolved",
          "type": "bool"
        },
        {
          "internalType": "bool",
          "name": "proposalApproved",
          "type": "bool"
        }
      ],
      "stateMutability": "view",
      "type": "function"
    },
    {
      "inputs": [
        {
          "internalType": "uint256",
          "name": "proposalId",
          "type": "uint256"
        }
      ],
      "name": "getDisputeResult",
      "outputs": [
        {
          "internalType": "bool",
          "name": "",
          "type": "bool"
        }
      ],
      "stateMutability": "view",
      "type": "function"
    },
    {
      "inputs": [
        {
          "internalType": "uint256",
          "name": "proposalId",
          "type": "uint256"
        },
        {
          "internalType": "uint256",
          "name": "totalJurors",
          "type": "uint256"
        }
      ],
      "name": "startDispute",
      "outputs": [],
      "stateMutability": "nonpayable",
      "type": "function"
    },
    {
      "inputs": [
        {
          "internalType": "uint256",
          "name": "proposalId",
          "type": "uint256"
        },
        {
          "internalType": "bool",
          "name": "approve",
          "type": "bool"
        }
      ],
      "name": "vote",
      "outputs": [],
      "stateMutability": "nonpayable",
      "type": "function"
    }
  ],
  "bytecode": "0x608060405234801561001057600080fd5b50610762806100206000396000f3fe608060405234801561001057600080fd5b50600436106100575760003560e01c806350de9b401461005c578063564a565d1461008c578063a28889e1146100c0578063c02b5068146100de578063c9d27afe146100fa575b600080fd5b61007660048036038101906100719190610401565b610116565b6040516100839190610540565b60405180910390f35b6100a660048036038101906100a19190610401565b6101a4565b6040516100b79594939291906105b6565b60405180910390f35b6100c86101f4565b6040516100d5919061059b565b60405180910390f35b6100f860048036038101906100f39190610466565b6101fa565b005b610114600480360381019061010f919061042a565b610230565b005b600080600083815260200190815260200160002060040160009054906101000a900460ff1661017a576040517f08c379a00000000000000000000000000000000000000000000000000000000081526004016101719061057b565b60405180910390fd5b60008083815260200190815260200160002060040160019054906101000a900460ff169050919050565b60006020528060005260406000206000915090508060010154908060020154908060030154908060040160009054906101000a900460ff16908060040160019054906101000a900460ff16905085565b60015481565b6001600081548092919061020d90610686565b919050555080600080848152602001908152602001600020600301819055505050565b600080600084815260200190815260200160002090508060000160003373ffffffffffffffffffffffffffffffffffffffff1673ffffffffffffffffffffffffffffffffffffffff16815260200190815260200160002060009054906101000a900460ff16156102d5576040517f08c379a00000000000000000000000000000000000000000000000000000000081526004016102cc9061055b565b60405180910390fd5b60018160000160003373ffffffffffffffffffffffffffffffffffffffff1673ffffffffffffffffffffffffffffffffffffffff16815260200190815260200160002060006101000a81548160ff02191690831515021790555081156103545780600101600081548092919061034a90610686565b919050555061036f565b80600201600081548092919061036990610686565b91905055505b806003015481600201548260010154610388919061061a565b14156103d25760018160040160006101000a81548160ff02191690831515021790555080600201548160010154118160040160016101000a81548160ff0219169083151502179055505b505050565b6000813590506103e6816106fe565b92915050565b6000813590506103fb81610715565b92915050565b60006020828403121561041357600080fd5b6000610421848285016103ec565b91505092915050565b6000806040838503121561043d57600080fd5b600061044b858286016103ec565b925050602061045c858286016103d7565b9150509250929050565b6000806040838503121561047957600080fd5b6000610487858286016103ec565b9250506020610498858286016103ec565b9150509250929050565b6104ab81610670565b82525050565b60006104be601783610609565b91507f596f75206861766520616c726561647920766f7465642e0000000000000000006000830152602082019050919050565b60006104fe601983610609565b91507f44697370757465206e6f7420796574207265736f6c7665642e000000000000006000830152602082019050919050565b61053a8161067c565b82525050565b600060208201905061055560008301846104a2565b92915050565b60006020820190508181036000830152610574816104b1565b9050919050565b60006020820190508181036000830152610594816104f1565b9050919050565b60006020820190506105b06000830184610531565b92915050565b600060a0820190506105cb6000830188610531565b6105d86020830187610531565b6105e56040830186610531565b6105f260608301856104a2565b6105ff60808301846104a2565b9695505050505050565b600082825260208201905092915050565b60006106258261067c565b91506106308361067c565b9250827fffffffffffffffffffffffffffffffffffffffffffffffffffffffffffffffff03821115610665576106646106cf565b5b828201905092915050565b60008115159050919050565b6000819050919050565b60006106918261067c565b91507fffffffffffffffffffffffffffffffffffffffffffffffffffffffffffffffff8214156106c4576106c36106cf565b5b600182019050919050565b7f4e487b7100000000000000000000000000000000000000000000000000000000600052601160045260246000fd5b61070781610670565b811461071257600080fd5b50565b61071e8161067c565b811461072957600080fd5b5056fea264697066735822122035428102bc3e9f227469d32d779c2bca64da468300298f1f24445239e696425864736f6c63430008000033",
  "linkReferences": {},
  "deployedLinkReferences": {}
}